{
  "_format": "hh-sol-artifact-1",
  "contractName": "MyEpicGame",
  "sourceName": "contracts/MyEpicGame.sol",
  "abi": [
    {
      "inputs": [
        {
          "internalType": "string[]",
          "name": "characterNames",
          "type": "string[]"
        },
        {
          "internalType": "string[]",
          "name": "characterImageURIs",
          "type": "string[]"
        },
        {
          "internalType": "uint256[]",
          "name": "characterHp",
          "type": "uint256[]"
        },
        {
          "internalType": "uint256[]",
          "name": "characterAttackDmg",
          "type": "uint256[]"
        },
        {
          "internalType": "string[]",
          "name": "characterTypes",
          "type": "string[]"
        },
        {
          "internalType": "uint256[]",
          "name": "characterCrit",
          "type": "uint256[]"
        },
        {
          "internalType": "string",
          "name": "bossName",
          "type": "string"
        },
        {
          "internalType": "string",
          "name": "bossImageURI",
          "type": "string"
        },
        {
          "internalType": "uint256",
          "name": "bossHp",
          "type": "uint256"
        },
        {
          "internalType": "uint256",
          "name": "bossAttackDamage",
          "type": "uint256"
        },
        {
          "internalType": "string",
          "name": "bossTrainer",
          "type": "string"
        }
      ],
      "stateMutability": "nonpayable",
      "type": "constructor"
    },
    {
      "anonymous": false,
      "inputs": [
        {
          "indexed": true,
          "internalType": "address",
          "name": "owner",
          "type": "address"
        },
        {
          "indexed": true,
          "internalType": "address",
          "name": "approved",
          "type": "address"
        },
        {
          "indexed": true,
          "internalType": "uint256",
          "name": "tokenId",
          "type": "uint256"
        }
      ],
      "name": "Approval",
      "type": "event"
    },
    {
      "anonymous": false,
      "inputs": [
        {
          "indexed": true,
          "internalType": "address",
          "name": "owner",
          "type": "address"
        },
        {
          "indexed": true,
          "internalType": "address",
          "name": "operator",
          "type": "address"
        },
        {
          "indexed": false,
          "internalType": "bool",
          "name": "approved",
          "type": "bool"
        }
      ],
      "name": "ApprovalForAll",
      "type": "event"
    },
    {
      "anonymous": false,
      "inputs": [
        {
          "indexed": false,
          "internalType": "address",
          "name": "sender",
          "type": "address"
        },
        {
          "indexed": false,
          "internalType": "uint256",
          "name": "newBossHp",
          "type": "uint256"
        },
        {
          "indexed": false,
          "internalType": "uint256",
          "name": "newPlayerHp",
          "type": "uint256"
        }
      ],
      "name": "AttackComplete",
      "type": "event"
    },
    {
      "anonymous": false,
      "inputs": [
        {
          "indexed": false,
          "internalType": "address",
          "name": "sender",
          "type": "address"
        },
        {
          "indexed": false,
          "internalType": "uint256",
          "name": "tokenId",
          "type": "uint256"
        },
        {
          "indexed": false,
          "internalType": "uint256",
          "name": "characterIndex",
          "type": "uint256"
        }
      ],
      "name": "CharacterNFTMinted",
      "type": "event"
    },
    {
      "anonymous": false,
      "inputs": [
        {
          "indexed": true,
          "internalType": "address",
          "name": "from",
          "type": "address"
        },
        {
          "indexed": true,
          "internalType": "address",
          "name": "to",
          "type": "address"
        },
        {
          "indexed": true,
          "internalType": "uint256",
          "name": "tokenId",
          "type": "uint256"
        }
      ],
      "name": "Transfer",
      "type": "event"
    },
    {
      "inputs": [
        {
          "internalType": "address",
          "name": "to",
          "type": "address"
        },
        {
          "internalType": "uint256",
          "name": "tokenId",
          "type": "uint256"
        }
      ],
      "name": "approve",
      "outputs": [],
      "stateMutability": "nonpayable",
      "type": "function"
    },
    {
      "inputs": [],
      "name": "attackBoss",
      "outputs": [],
      "stateMutability": "nonpayable",
      "type": "function"
    },
    {
      "inputs": [
        {
          "internalType": "address",
          "name": "owner",
          "type": "address"
        }
      ],
      "name": "balanceOf",
      "outputs": [
        {
          "internalType": "uint256",
          "name": "",
          "type": "uint256"
        }
      ],
      "stateMutability": "view",
      "type": "function"
    },
    {
      "inputs": [],
      "name": "bigBoss",
      "outputs": [
        {
          "internalType": "string",
          "name": "name",
          "type": "string"
        },
        {
          "internalType": "string",
          "name": "imageURI",
          "type": "string"
        },
        {
          "internalType": "string",
          "name": "trainer",
          "type": "string"
        },
        {
          "internalType": "uint256",
          "name": "hp",
          "type": "uint256"
        },
        {
          "internalType": "uint256",
          "name": "maxHp",
          "type": "uint256"
        },
        {
          "internalType": "uint256",
          "name": "attackDamage",
          "type": "uint256"
        }
      ],
      "stateMutability": "view",
      "type": "function"
    },
    {
      "inputs": [
        {
          "internalType": "address",
          "name": "player",
          "type": "address"
        }
      ],
      "name": "checkIfUserHasNFT",
      "outputs": [
        {
          "components": [
            {
              "internalType": "uint256",
              "name": "characterIndex",
              "type": "uint256"
            },
            {
              "internalType": "string",
              "name": "name",
              "type": "string"
            },
            {
              "internalType": "string",
              "name": "imageURI",
              "type": "string"
            },
            {
              "internalType": "uint256",
              "name": "hp",
              "type": "uint256"
            },
            {
              "internalType": "uint256",
              "name": "maxHp",
              "type": "uint256"
            },
            {
              "internalType": "uint256",
              "name": "attackDamage",
              "type": "uint256"
            },
            {
              "internalType": "string",
              "name": "characterType",
              "type": "string"
            },
            {
              "internalType": "uint256",
              "name": "crit",
              "type": "uint256"
            }
          ],
          "internalType": "struct MyEpicGame.CharacterAttributes",
          "name": "",
          "type": "tuple"
        }
      ],
      "stateMutability": "view",
      "type": "function"
    },
    {
      "inputs": [],
      "name": "getAddresses",
      "outputs": [
        {
          "internalType": "address payable[]",
          "name": "",
          "type": "address[]"
        }
      ],
      "stateMutability": "view",
      "type": "function"
    },
    {
      "inputs": [],
      "name": "getAllDefaultCharacters",
      "outputs": [
        {
          "components": [
            {
              "internalType": "uint256",
              "name": "characterIndex",
              "type": "uint256"
            },
            {
              "internalType": "string",
              "name": "name",
              "type": "string"
            },
            {
              "internalType": "string",
              "name": "imageURI",
              "type": "string"
            },
            {
              "internalType": "uint256",
              "name": "hp",
              "type": "uint256"
            },
            {
              "internalType": "uint256",
              "name": "maxHp",
              "type": "uint256"
            },
            {
              "internalType": "uint256",
              "name": "attackDamage",
              "type": "uint256"
            },
            {
              "internalType": "string",
              "name": "characterType",
              "type": "string"
            },
            {
              "internalType": "uint256",
              "name": "crit",
              "type": "uint256"
            }
          ],
          "internalType": "struct MyEpicGame.CharacterAttributes[]",
          "name": "",
          "type": "tuple[]"
        }
      ],
      "stateMutability": "view",
      "type": "function"
    },
    {
      "inputs": [
        {
          "internalType": "uint256",
          "name": "tokenId",
          "type": "uint256"
        }
      ],
      "name": "getApproved",
      "outputs": [
        {
          "internalType": "address",
          "name": "",
          "type": "address"
        }
      ],
      "stateMutability": "view",
      "type": "function"
    },
    {
      "inputs": [],
      "name": "getBigBoss",
      "outputs": [
        {
          "components": [
            {
              "internalType": "string",
              "name": "name",
              "type": "string"
            },
            {
              "internalType": "string",
              "name": "imageURI",
              "type": "string"
            },
            {
              "internalType": "string",
              "name": "trainer",
              "type": "string"
            },
            {
              "internalType": "uint256",
              "name": "hp",
              "type": "uint256"
            },
            {
              "internalType": "uint256",
              "name": "maxHp",
              "type": "uint256"
            },
            {
              "internalType": "uint256",
              "name": "attackDamage",
              "type": "uint256"
            }
          ],
          "internalType": "struct MyEpicGame.BigBoss",
          "name": "",
          "type": "tuple"
        }
      ],
      "stateMutability": "view",
      "type": "function"
    },
    {
      "inputs": [],
      "name": "getSupply",
      "outputs": [
        {
          "internalType": "uint256",
          "name": "",
          "type": "uint256"
        }
      ],
      "stateMutability": "view",
      "type": "function"
    },
    {
      "inputs": [
        {
          "internalType": "address",
          "name": "owner",
          "type": "address"
        },
        {
          "internalType": "address",
          "name": "operator",
          "type": "address"
        }
      ],
      "name": "isApprovedForAll",
      "outputs": [
        {
          "internalType": "bool",
          "name": "",
          "type": "bool"
        }
      ],
      "stateMutability": "view",
      "type": "function"
    },
    {
      "inputs": [
        {
          "internalType": "uint256",
          "name": "_characterIndex",
          "type": "uint256"
        }
      ],
      "name": "mintCharacterNFT",
      "outputs": [],
      "stateMutability": "nonpayable",
      "type": "function"
    },
    {
      "inputs": [],
      "name": "name",
      "outputs": [
        {
          "internalType": "string",
          "name": "",
          "type": "string"
        }
      ],
      "stateMutability": "view",
      "type": "function"
    },
    {
      "inputs": [
        {
          "internalType": "uint256",
          "name": "",
          "type": "uint256"
        }
      ],
      "name": "nftHolderAttributes",
      "outputs": [
        {
          "internalType": "uint256",
          "name": "characterIndex",
          "type": "uint256"
        },
        {
          "internalType": "string",
          "name": "name",
          "type": "string"
        },
        {
          "internalType": "string",
          "name": "imageURI",
          "type": "string"
        },
        {
          "internalType": "uint256",
          "name": "hp",
          "type": "uint256"
        },
        {
          "internalType": "uint256",
          "name": "maxHp",
          "type": "uint256"
        },
        {
          "internalType": "uint256",
          "name": "attackDamage",
          "type": "uint256"
        },
        {
          "internalType": "string",
          "name": "characterType",
          "type": "string"
        },
        {
          "internalType": "uint256",
          "name": "crit",
          "type": "uint256"
        }
      ],
      "stateMutability": "view",
      "type": "function"
    },
    {
      "inputs": [
        {
          "internalType": "address",
          "name": "",
          "type": "address"
        }
      ],
      "name": "nftHolders",
      "outputs": [
        {
          "internalType": "uint256",
          "name": "",
          "type": "uint256"
        }
      ],
      "stateMutability": "view",
      "type": "function"
    },
    {
      "inputs": [
        {
          "internalType": "uint256",
          "name": "tokenId",
          "type": "uint256"
        }
      ],
      "name": "ownerOf",
      "outputs": [
        {
          "internalType": "address",
          "name": "",
          "type": "address"
        }
      ],
      "stateMutability": "view",
      "type": "function"
    },
    {
      "inputs": [
        {
          "internalType": "uint256",
          "name": "",
          "type": "uint256"
        }
      ],
      "name": "players",
      "outputs": [
        {
          "internalType": "address payable",
          "name": "",
          "type": "address"
        }
      ],
      "stateMutability": "view",
      "type": "function"
    },
    {
      "inputs": [
        {
          "internalType": "address",
          "name": "from",
          "type": "address"
        },
        {
          "internalType": "address",
          "name": "to",
          "type": "address"
        },
        {
          "internalType": "uint256",
          "name": "tokenId",
          "type": "uint256"
        }
      ],
      "name": "safeTransferFrom",
      "outputs": [],
      "stateMutability": "nonpayable",
      "type": "function"
    },
    {
      "inputs": [
        {
          "internalType": "address",
          "name": "from",
          "type": "address"
        },
        {
          "internalType": "address",
          "name": "to",
          "type": "address"
        },
        {
          "internalType": "uint256",
          "name": "tokenId",
          "type": "uint256"
        },
        {
          "internalType": "bytes",
          "name": "_data",
          "type": "bytes"
        }
      ],
      "name": "safeTransferFrom",
      "outputs": [],
      "stateMutability": "nonpayable",
      "type": "function"
    },
    {
      "inputs": [
        {
          "internalType": "address",
          "name": "operator",
          "type": "address"
        },
        {
          "internalType": "bool",
          "name": "approved",
          "type": "bool"
        }
      ],
      "name": "setApprovalForAll",
      "outputs": [],
      "stateMutability": "nonpayable",
      "type": "function"
    },
    {
      "inputs": [
        {
          "internalType": "bytes4",
          "name": "interfaceId",
          "type": "bytes4"
        }
      ],
      "name": "supportsInterface",
      "outputs": [
        {
          "internalType": "bool",
          "name": "",
          "type": "bool"
        }
      ],
      "stateMutability": "view",
      "type": "function"
    },
    {
      "inputs": [],
      "name": "symbol",
      "outputs": [
        {
          "internalType": "string",
          "name": "",
          "type": "string"
        }
      ],
      "stateMutability": "view",
      "type": "function"
    },
    {
      "inputs": [
        {
          "internalType": "uint256",
          "name": "_tokenId",
          "type": "uint256"
        }
      ],
      "name": "tokenURI",
      "outputs": [
        {
          "internalType": "string",
          "name": "",
          "type": "string"
        }
      ],
      "stateMutability": "view",
      "type": "function"
    },
    {
      "inputs": [
        {
          "internalType": "address",
          "name": "from",
          "type": "address"
        },
        {
          "internalType": "address",
          "name": "to",
          "type": "address"
        },
        {
          "internalType": "uint256",
          "name": "tokenId",
          "type": "uint256"
        }
      ],
      "name": "transferFrom",
      "outputs": [],
      "stateMutability": "nonpayable",
      "type": "function"
    }
  ],
  "bytecode": "0x60806040523480156200001157600080fd5b50604051620066a8380380620066a8833981810160405281019062000037919062000cdd565b6040518060400160405280600781526020017f506f6b656d6f6e000000000000000000000000000000000000000000000000008152506040518060400160405280600481526020017f504f4b45000000000000000000000000000000000000000000000000000000008152508160009080519060200190620000bb92919062000a70565b508060019080519060200190620000d492919062000a70565b5050506040518060c0016040528086815260200185815260200182815260200184815260200184815260200183815250600a60008201518160000190805190602001906200012492919062000a70565b5060208201518160010190805190602001906200014392919062000a70565b5060408201518160020190805190602001906200016292919062000a70565b50606082015181600301556080820151816004015560a08201518160050155905050620002e56040518060600160405280602a81526020016200667e602a9139600a6000018054620001b4906200113a565b80601f0160208091040260200160405190810160405280929190818152602001828054620001e2906200113a565b8015620002335780601f10620002075761010080835404028352916020019162000233565b820191906000526020600020905b8154815290600101906020018083116200021557829003601f168201915b5050505050600a60030154600a600101805462000250906200113a565b80601f01602080910402602001604051908101604052809291908181526020018280546200027e906200113a565b8015620002cf5780601f10620002a357610100808354040283529160200191620002cf565b820191906000526020600020905b815481529060010190602001808311620002b157829003601f168201915b5050505050620008dc60201b620022b31760201c565b60005b8b51811015620008b35760076040518061010001604052808381526020018e848151811062000340577f4e487b7100000000000000000000000000000000000000000000000000000000600052603260045260246000fd5b602002602001015181526020018d848151811062000387577f4e487b7100000000000000000000000000000000000000000000000000000000600052603260045260246000fd5b602002602001015181526020018c8481518110620003ce577f4e487b7100000000000000000000000000000000000000000000000000000000600052603260045260246000fd5b602002602001015181526020018c848151811062000415577f4e487b7100000000000000000000000000000000000000000000000000000000600052603260045260246000fd5b602002602001015181526020018b84815181106200045c577f4e487b7100000000000000000000000000000000000000000000000000000000600052603260045260246000fd5b602002602001015181526020018a8481518110620004a3577f4e487b7100000000000000000000000000000000000000000000000000000000600052603260045260246000fd5b60200260200101518152602001898481518110620004ea577f4e487b7100000000000000000000000000000000000000000000000000000000600052603260045260246000fd5b602002602001015181525090806001815401808255809150506001900390600052602060002090600802016000909190919091506000820151816000015560208201518160010190805190602001906200054692919062000a70565b5060408201518160020190805190602001906200056592919062000a70565b50606082015181600301556080820151816004015560a0820151816005015560c0820151816006019080519060200190620005a292919062000a70565b5060e082015181600701555050600060078281548110620005ec577f4e487b7100000000000000000000000000000000000000000000000000000000600052603260045260246000fd5b9060005260206000209060080201604051806101000160405290816000820154815260200160018201805462000622906200113a565b80601f016020809104026020016040519081016040528092919081815260200182805462000650906200113a565b8015620006a15780601f106200067557610100808354040283529160200191620006a1565b820191906000526020600020905b8154815290600101906020018083116200068357829003601f168201915b50505050508152602001600282018054620006bc906200113a565b80601f0160208091040260200160405190810160405280929190818152602001828054620006ea906200113a565b80156200073b5780601f106200070f576101008083540402835291602001916200073b565b820191906000526020600020905b8154815290600101906020018083116200071d57829003601f168201915b5050505050815260200160038201548152602001600482015481526020016005820154815260200160068201805462000774906200113a565b80601f0160208091040260200160405190810160405280929190818152602001828054620007a2906200113a565b8015620007f35780601f10620007c757610100808354040283529160200191620007f3565b820191906000526020600020905b815481529060010190602001808311620007d557829003601f168201915b505050505081526020016007820154815250509050620008466040518060600160405280602581526020016200665960259139826020015183606001518460400151620008dc60201b620022b31760201c565b6200089b6040518060400160405280600f81526020017f257320646d672c207479706520257300000000000000000000000000000000008152508260a001518360c001516200098860201b620023551760201c565b50600181620008ab91906200109d565b9050620002e8565b50620008cb600662000a3160201b620023f41760201c565b50505050505050505050506200125e565b6200098284848484604051602401620008f9949392919062000f17565b6040516020818303038152906040527f8d142cdd000000000000000000000000000000000000000000000000000000007bffffffffffffffffffffffffffffffffffffffffffffffffffffffff19166020820180517bffffffffffffffffffffffffffffffffffffffffffffffffffffffff838183161783525050505062000a4760201b60201c565b50505050565b62000a2c838383604051602401620009a39392919062000f79565b6040516020818303038152906040527fa3f5c739000000000000000000000000000000000000000000000000000000007bffffffffffffffffffffffffffffffffffffffffffffffffffffffff19166020820180517bffffffffffffffffffffffffffffffffffffffffffffffffffffffff838183161783525050505062000a4760201b60201c565b505050565b6001816000016000828254019250508190555050565b60008151905060006a636f6e736f6c652e6c6f679050602083016000808483855afa5050505050565b82805462000a7e906200113a565b90600052602060002090601f01602090048101928262000aa2576000855562000aee565b82601f1062000abd57805160ff191683800117855562000aee565b8280016001018555821562000aee579182015b8281111562000aed57825182559160200191906001019062000ad0565b5b50905062000afd919062000b01565b5090565b5b8082111562000b1c57600081600090555060010162000b02565b5090565b600062000b3762000b318462000fed565b62000fc4565b9050808382526020820190508260005b8581101562000b7b578151850162000b60888262000c99565b84526020840193506020830192505060018101905062000b47565b5050509392505050565b600062000b9c62000b96846200101c565b62000fc4565b9050808382526020820190508285602086028201111562000bbc57600080fd5b60005b8581101562000bf0578162000bd5888262000cc6565b84526020840193506020830192505060018101905062000bbf565b5050509392505050565b600062000c1162000c0b846200104b565b62000fc4565b90508281526020810184848401111562000c2a57600080fd5b62000c3784828562001104565b509392505050565b600082601f83011262000c5157600080fd5b815162000c6384826020860162000b20565b91505092915050565b600082601f83011262000c7e57600080fd5b815162000c9084826020860162000b85565b91505092915050565b600082601f83011262000cab57600080fd5b815162000cbd84826020860162000bfa565b91505092915050565b60008151905062000cd78162001244565b92915050565b60008060008060008060008060008060006101608c8e03121562000d0057600080fd5b60008c015167ffffffffffffffff81111562000d1b57600080fd5b62000d298e828f0162000c3f565b9b505060208c015167ffffffffffffffff81111562000d4757600080fd5b62000d558e828f0162000c3f565b9a505060408c015167ffffffffffffffff81111562000d7357600080fd5b62000d818e828f0162000c6c565b99505060608c015167ffffffffffffffff81111562000d9f57600080fd5b62000dad8e828f0162000c6c565b98505060808c015167ffffffffffffffff81111562000dcb57600080fd5b62000dd98e828f0162000c3f565b97505060a08c015167ffffffffffffffff81111562000df757600080fd5b62000e058e828f0162000c6c565b96505060c08c015167ffffffffffffffff81111562000e2357600080fd5b62000e318e828f0162000c99565b95505060e08c015167ffffffffffffffff81111562000e4f57600080fd5b62000e5d8e828f0162000c99565b94505061010062000e718e828f0162000cc6565b93505061012062000e858e828f0162000cc6565b9250506101408c015167ffffffffffffffff81111562000ea457600080fd5b62000eb28e828f0162000c99565b9150509295989b509295989b9093969950565b600062000ed28262001081565b62000ede81856200108c565b935062000ef081856020860162001104565b62000efb8162001233565b840191505092915050565b62000f1181620010fa565b82525050565b6000608082019050818103600083015262000f33818762000ec5565b9050818103602083015262000f49818662000ec5565b905062000f5a604083018562000f06565b818103606083015262000f6e818462000ec5565b905095945050505050565b6000606082019050818103600083015262000f95818662000ec5565b905062000fa6602083018562000f06565b818103604083015262000fba818462000ec5565b9050949350505050565b600062000fd062000fe3565b905062000fde828262001170565b919050565b6000604051905090565b600067ffffffffffffffff8211156200100b576200100a62001204565b5b602082029050602081019050919050565b600067ffffffffffffffff8211156200103a576200103962001204565b5b602082029050602081019050919050565b600067ffffffffffffffff82111562001069576200106862001204565b5b620010748262001233565b9050602081019050919050565b600081519050919050565b600082825260208201905092915050565b6000620010aa82620010fa565b9150620010b783620010fa565b9250827fffffffffffffffffffffffffffffffffffffffffffffffffffffffffffffffff03821115620010ef57620010ee620011a6565b5b828201905092915050565b6000819050919050565b60005b838110156200112457808201518184015260208101905062001107565b8381111562001134576000848401525b50505050565b600060028204905060018216806200115357607f821691505b602082108114156200116a5762001169620011d5565b5b50919050565b6200117b8262001233565b810181811067ffffffffffffffff821117156200119d576200119c62001204565b5b80604052505050565b7f4e487b7100000000000000000000000000000000000000000000000000000000600052601160045260246000fd5b7f4e487b7100000000000000000000000000000000000000000000000000000000600052602260045260246000fd5b7f4e487b7100000000000000000000000000000000000000000000000000000000600052604160045260246000fd5b6000601f19601f8301169050919050565b6200124f81620010fa565b81146200125b57600080fd5b50565b6153eb806200126e6000396000f3fe608060405234801561001057600080fd5b50600436106101585760003560e01c806395d89b41116100c3578063b953084e1161007c578063b953084e146103f9578063c87b56dd14610417578063d4f24c5b14610447578063e985e9c514610451578063f71d96cb14610481578063f8b81ef7146104b157610158565b806395d89b411461032b57806398da4c9514610349578063a22cb46514610380578063a39fac121461039c578063a9c32679146103ba578063b88d4fde146103dd57610158565b806323b872dd1161011557806323b872dd1461024557806342842e0e146102615780636352211e1461027d5780636c9c2faf146102ad57806370a08231146102cb5780637df124a1146102fb57610158565b806301ffc9a71461015d5780630665f9611461018d57806306fdde03146101ab578063081812fc146101c9578063095ea7b3146101f95780631bf7bfd414610215575b600080fd5b610177600480360381019061017291906137db565b6104cd565b60405161018491906141fd565b60405180910390f35b6101956105af565b6040516101a291906145f0565b60405180910390f35b6101b361079d565b6040516101c09190614218565b60405180910390f35b6101e360048036038101906101de919061382d565b61082f565b6040516101f09190614100565b60405180910390f35b610213600480360381019061020e919061379f565b6108b4565b005b61022f600480360381019061022a9190613634565b6109cc565b60405161023c9190614612565b60405180910390f35b61025f600480360381019061025a9190613699565b610c43565b005b61027b60048036038101906102769190613699565b610ca3565b005b6102976004803603810190610292919061382d565b610cc3565b6040516102a49190614100565b60405180910390f35b6102b5610d75565b6040516102c29190614634565b60405180910390f35b6102e560048036038101906102e09190613634565b610d86565b6040516102f29190614634565b60405180910390f35b61031560048036038101906103109190613634565b610e3e565b6040516103229190614634565b60405180910390f35b610333610e56565b6040516103409190614218565b60405180910390f35b610363600480360381019061035e919061382d565b610ee8565b60405161037798979695949392919061464f565b60405180910390f35b61039a60048036038101906103959190613763565b6110c8565b005b6103a46110de565b6040516103b191906141b9565b60405180910390f35b6103c261116c565b6040516103d49695949392919061423a565b60405180910390f35b6103f760048036038101906103f291906136e8565b61132e565b005b610401611390565b60405161040e91906141db565b60405180910390f35b610431600480360381019061042c919061382d565b6115d8565b60405161043e9190614218565b60405180910390f35b61044f6118aa565b005b61046b6004803603810190610466919061365d565b611c37565b60405161047891906141fd565b60405180910390f35b61049b6004803603810190610496919061382d565b611ccb565b6040516104a8919061411b565b60405180910390f35b6104cb60048036038101906104c6919061382d565b611d0a565b005b60007f80ac58cd000000000000000000000000000000000000000000000000000000007bffffffffffffffffffffffffffffffffffffffffffffffffffffffff1916827bffffffffffffffffffffffffffffffffffffffffffffffffffffffff1916148061059857507f5b5e139f000000000000000000000000000000000000000000000000000000007bffffffffffffffffffffffffffffffffffffffffffffffffffffffff1916827bffffffffffffffffffffffffffffffffffffffffffffffffffffffff1916145b806105a857506105a78261240a565b5b9050919050565b6105b7613445565b600a6040518060c00160405290816000820180546105d4906149db565b80601f0160208091040260200160405190810160405280929190818152602001828054610600906149db565b801561064d5780601f106106225761010080835404028352916020019161064d565b820191906000526020600020905b81548152906001019060200180831161063057829003601f168201915b50505050508152602001600182018054610666906149db565b80601f0160208091040260200160405190810160405280929190818152602001828054610692906149db565b80156106df5780601f106106b4576101008083540402835291602001916106df565b820191906000526020600020905b8154815290600101906020018083116106c257829003601f168201915b505050505081526020016002820180546106f8906149db565b80601f0160208091040260200160405190810160405280929190818152602001828054610724906149db565b80156107715780601f1061074657610100808354040283529160200191610771565b820191906000526020600020905b81548152906001019060200180831161075457829003601f168201915b505050505081526020016003820154815260200160048201548152602001600582015481525050905090565b6060600080546107ac906149db565b80601f01602080910402602001604051908101604052809291908181526020018280546107d8906149db565b80156108255780601f106107fa57610100808354040283529160200191610825565b820191906000526020600020905b81548152906001019060200180831161080857829003601f168201915b5050505050905090565b600061083a82612474565b610879576040517f08c379a000000000000000000000000000000000000000000000000000000000815260040161087090614590565b60405180910390fd5b6004600083815260200190815260200160002060009054906101000a900473ffffffffffffffffffffffffffffffffffffffff169050919050565b60006108bf82610cc3565b90508073ffffffffffffffffffffffffffffffffffffffff168373ffffffffffffffffffffffffffffffffffffffff161415610930576040517f08c379a0000000000000000000000000000000000000000000000000000000008152600401610927906145b0565b60405180910390fd5b8073ffffffffffffffffffffffffffffffffffffffff1661094f6124e0565b73ffffffffffffffffffffffffffffffffffffffff16148061097e575061097d816109786124e0565b611c37565b5b6109bd576040517f08c379a00000000000000000000000000000000000000000000000000000000081526004016109b4906144f0565b60405180910390fd5b6109c783836124e8565b505050565b6109d461347b565b6000600960008473ffffffffffffffffffffffffffffffffffffffff1673ffffffffffffffffffffffffffffffffffffffff1681526020019081526020016000205490506000811115610c3057600860008281526020019081526020016000206040518061010001604052908160008201548152602001600182018054610a5a906149db565b80601f0160208091040260200160405190810160405280929190818152602001828054610a86906149db565b8015610ad35780601f10610aa857610100808354040283529160200191610ad3565b820191906000526020600020905b815481529060010190602001808311610ab657829003601f168201915b50505050508152602001600282018054610aec906149db565b80601f0160208091040260200160405190810160405280929190818152602001828054610b18906149db565b8015610b655780601f10610b3a57610100808354040283529160200191610b65565b820191906000526020600020905b815481529060010190602001808311610b4857829003601f168201915b50505050508152602001600382015481526020016004820154815260200160058201548152602001600682018054610b9c906149db565b80601f0160208091040260200160405190810160405280929190818152602001828054610bc8906149db565b8015610c155780601f10610bea57610100808354040283529160200191610c15565b820191906000526020600020905b815481529060010190602001808311610bf857829003601f168201915b50505050508152602001600782015481525050915050610c3e565b610c3861347b565b80925050505b919050565b610c54610c4e6124e0565b826125a1565b610c93576040517f08c379a0000000000000000000000000000000000000000000000000000000008152600401610c8a906145d0565b60405180910390fd5b610c9e83838361267f565b505050565b610cbe8383836040518060200160405280600081525061132e565b505050565b6000806002600084815260200190815260200160002060009054906101000a900473ffffffffffffffffffffffffffffffffffffffff169050600073ffffffffffffffffffffffffffffffffffffffff168173ffffffffffffffffffffffffffffffffffffffff161415610d6c576040517f08c379a0000000000000000000000000000000000000000000000000000000008152600401610d6390614530565b60405180910390fd5b80915050919050565b6000610d8160066128e6565b905090565b60008073ffffffffffffffffffffffffffffffffffffffff168273ffffffffffffffffffffffffffffffffffffffff161415610df7576040517f08c379a0000000000000000000000000000000000000000000000000000000008152600401610dee90614510565b60405180910390fd5b600360008373ffffffffffffffffffffffffffffffffffffffff1673ffffffffffffffffffffffffffffffffffffffff168152602001908152602001600020549050919050565b60096020528060005260406000206000915090505481565b606060018054610e65906149db565b80601f0160208091040260200160405190810160405280929190818152602001828054610e91906149db565b8015610ede5780601f10610eb357610100808354040283529160200191610ede565b820191906000526020600020905b815481529060010190602001808311610ec157829003601f168201915b5050505050905090565b6008602052806000526040600020600091509050806000015490806001018054610f11906149db565b80601f0160208091040260200160405190810160405280929190818152602001828054610f3d906149db565b8015610f8a5780601f10610f5f57610100808354040283529160200191610f8a565b820191906000526020600020905b815481529060010190602001808311610f6d57829003601f168201915b505050505090806002018054610f9f906149db565b80601f0160208091040260200160405190810160405280929190818152602001828054610fcb906149db565b80156110185780601f10610fed57610100808354040283529160200191611018565b820191906000526020600020905b815481529060010190602001808311610ffb57829003601f168201915b50505050509080600301549080600401549080600501549080600601805461103f906149db565b80601f016020809104026020016040519081016040528092919081815260200182805461106b906149db565b80156110b85780601f1061108d576101008083540402835291602001916110b8565b820191906000526020600020905b81548152906001019060200180831161109b57829003601f168201915b5050505050908060070154905088565b6110da6110d36124e0565b83836128f4565b5050565b6060601080548060200260200160405190810160405280929190818152602001828054801561116257602002820191906000526020600020905b8160009054906101000a900473ffffffffffffffffffffffffffffffffffffffff1673ffffffffffffffffffffffffffffffffffffffff1681526020019060010190808311611118575b5050505050905090565b600a80600001805461117d906149db565b80601f01602080910402602001604051908101604052809291908181526020018280546111a9906149db565b80156111f65780601f106111cb576101008083540402835291602001916111f6565b820191906000526020600020905b8154815290600101906020018083116111d957829003601f168201915b50505050509080600101805461120b906149db565b80601f0160208091040260200160405190810160405280929190818152602001828054611237906149db565b80156112845780601f1061125957610100808354040283529160200191611284565b820191906000526020600020905b81548152906001019060200180831161126757829003601f168201915b505050505090806002018054611299906149db565b80601f01602080910402602001604051908101604052809291908181526020018280546112c5906149db565b80156113125780601f106112e757610100808354040283529160200191611312565b820191906000526020600020905b8154815290600101906020018083116112f557829003601f168201915b5050505050908060030154908060040154908060050154905086565b61133f6113396124e0565b836125a1565b61137e576040517f08c379a0000000000000000000000000000000000000000000000000000000008152600401611375906145d0565b60405180910390fd5b61138a84848484612a61565b50505050565b60606007805480602002602001604051908101604052809291908181526020016000905b828210156115cf578382906000526020600020906008020160405180610100016040529081600082015481526020016001820180546113f2906149db565b80601f016020809104026020016040519081016040528092919081815260200182805461141e906149db565b801561146b5780601f106114405761010080835404028352916020019161146b565b820191906000526020600020905b81548152906001019060200180831161144e57829003601f168201915b50505050508152602001600282018054611484906149db565b80601f01602080910402602001604051908101604052809291908181526020018280546114b0906149db565b80156114fd5780601f106114d2576101008083540402835291602001916114fd565b820191906000526020600020905b8154815290600101906020018083116114e057829003601f168201915b50505050508152602001600382015481526020016004820154815260200160058201548152602001600682018054611534906149db565b80601f0160208091040260200160405190810160405280929190818152602001828054611560906149db565b80156115ad5780601f10611582576101008083540402835291602001916115ad565b820191906000526020600020905b81548152906001019060200180831161159057829003601f168201915b50505050508152602001600782015481525050815260200190600101906113b4565b50505050905090565b60606000600860008481526020019081526020016000206040518061010001604052908160008201548152602001600182018054611615906149db565b80601f0160208091040260200160405190810160405280929190818152602001828054611641906149db565b801561168e5780601f106116635761010080835404028352916020019161168e565b820191906000526020600020905b81548152906001019060200180831161167157829003601f168201915b505050505081526020016002820180546116a7906149db565b80601f01602080910402602001604051908101604052809291908181526020018280546116d3906149db565b80156117205780601f106116f557610100808354040283529160200191611720565b820191906000526020600020905b81548152906001019060200180831161170357829003601f168201915b50505050508152602001600382015481526020016004820154815260200160058201548152602001600682018054611757906149db565b80601f0160208091040260200160405190810160405280929190818152602001828054611783906149db565b80156117d05780601f106117a5576101008083540402835291602001916117d0565b820191906000526020600020905b8154815290600101906020018083116117b357829003601f168201915b50505050508152602001600782015481525050905060006117f48260600151612abd565b905060006118058360800151612abd565b905060006118168460a00151612abd565b905060006118278560e00151612abd565b90506000611875866020015161183c8a612abd565b8860400151888888888d60c00151604051602001611861989796959493929190614009565b604051602081830303815290604052612c6a565b905060008160405160200161188a91906140de565b604051602081830303815290604052905080975050505050505050919050565b6000600960003373ffffffffffffffffffffffffffffffffffffffff1673ffffffffffffffffffffffffffffffffffffffff16815260200190815260200160002054905060006008600083815260200190815260200160002090506119bd6040518060600160405280604081526020016152b560409139826001018054611930906149db565b80601f016020809104026020016040519081016040528092919081815260200182805461195c906149db565b80156119a95780601f1061197e576101008083540402835291602001916119a9565b820191906000526020600020905b81548152906001019060200180831161198c57829003601f168201915b505050505083600301548460050154612e28565b611a956040518060400160405280601b81526020017f426f73732025732068617320257320485020616e642025732041440000000000815250600a6000018054611a06906149db565b80601f0160208091040260200160405190810160405280929190818152602001828054611a32906149db565b8015611a7f5780601f10611a5457610100808354040283529160200191611a7f565b820191906000526020600020905b815481529060010190602001808311611a6257829003601f168201915b5050505050600a60030154600a60050154612e28565b6000816003015411611adc576040517f08c379a0000000000000000000000000000000000000000000000000000000008152600401611ad390614550565b60405180910390fd5b6000600a6003015411611b24576040517f08c379a0000000000000000000000000000000000000000000000000000000008152600401611b1b90614450565b60405180910390fd5b8060050154600a600301541015611b45576000600a60030181905550611b64565b8060050154600a60030154611b5a91906148df565b600a600301819055505b600a6005015481600301541015611b845760008160030181905550611ba2565b600a600501548160030154611b9991906148df565b81600301819055505b611bc960405180606001604052806027815260200161531e60279139600a60030154612eca565b611bef6040518060600160405280602981526020016152f5602991398260030154612eca565b7f32bd565ee3f2cb5ddd742bbecd6048d3e9abe90b3827a40c2b72d232e71e3c9d33600a600301548360030154604051611c2b93929190614182565b60405180910390a15050565b6000600560008473ffffffffffffffffffffffffffffffffffffffff1673ffffffffffffffffffffffffffffffffffffffff16815260200190815260200160002060008373ffffffffffffffffffffffffffffffffffffffff1673ffffffffffffffffffffffffffffffffffffffff16815260200190815260200160002060009054906101000a900460ff16905092915050565b60108181548110611cdb57600080fd5b906000526020600020016000915054906101000a900473ffffffffffffffffffffffffffffffffffffffff1681565b6000611d1660066128e6565b9050611d223382612f66565b60405180610100016040528083815260200160078481548110611d6e577f4e487b7100000000000000000000000000000000000000000000000000000000600052603260045260246000fd5b90600052602060002090600802016001018054611d8a906149db565b80601f0160208091040260200160405190810160405280929190818152602001828054611db6906149db565b8015611e035780601f10611dd857610100808354040283529160200191611e03565b820191906000526020600020905b815481529060010190602001808311611de657829003601f168201915b5050505050815260200160078481548110611e47577f4e487b7100000000000000000000000000000000000000000000000000000000600052603260045260246000fd5b90600052602060002090600802016002018054611e63906149db565b80601f0160208091040260200160405190810160405280929190818152602001828054611e8f906149db565b8015611edc5780601f10611eb157610100808354040283529160200191611edc565b820191906000526020600020905b815481529060010190602001808311611ebf57829003601f168201915b5050505050815260200160078481548110611f20577f4e487b7100000000000000000000000000000000000000000000000000000000600052603260045260246000fd5b906000526020600020906008020160030154815260200160078481548110611f71577f4e487b7100000000000000000000000000000000000000000000000000000000600052603260045260246000fd5b906000526020600020906008020160040154815260200160078481548110611fc2577f4e487b7100000000000000000000000000000000000000000000000000000000600052603260045260246000fd5b906000526020600020906008020160050154815260200160078481548110612013577f4e487b7100000000000000000000000000000000000000000000000000000000600052603260045260246000fd5b9060005260206000209060080201600601805461202f906149db565b80601f016020809104026020016040519081016040528092919081815260200182805461205b906149db565b80156120a85780601f1061207d576101008083540402835291602001916120a8565b820191906000526020600020905b81548152906001019060200180831161208b57829003601f168201915b50505050508152602001600784815481106120ec577f4e487b7100000000000000000000000000000000000000000000000000000000600052603260045260246000fd5b9060005260206000209060080201600701548152506008600083815260200190815260200160002060008201518160000155602082015181600101908051906020019061213a9291906134c0565b5060408201518160020190805190602001906121579291906134c0565b50606082015181600301556080820151816004015560a0820151816005015560c08201518160060190805190602001906121929291906134c0565b5060e082015181600701559050506121c3604051806060016040528060318152602001615385603191398284612f84565b80600960003373ffffffffffffffffffffffffffffffffffffffff1673ffffffffffffffffffffffffffffffffffffffff1681526020019081526020016000208190555061221160066123f4565b6010339080600181540180825580915050600190039060005260206000200160009091909190916101000a81548173ffffffffffffffffffffffffffffffffffffffff021916908373ffffffffffffffffffffffffffffffffffffffff1602179055507f4bc303fd457a97b4691b9af582ce71868a3d258638c8d4f8c60988a0f0bfb8cd3382846040516122a793929190614182565b60405180910390a15050565b61234f848484846040516024016122cd94939291906142b0565b6040516020818303038152906040527f8d142cdd000000000000000000000000000000000000000000000000000000007bffffffffffffffffffffffffffffffffffffffffffffffffffffffff19166020820180517bffffffffffffffffffffffffffffffffffffffffffffffffffffffff8381831617835250505050613023565b50505050565b6123ef83838360405160240161236d9392919061438d565b6040516020818303038152906040527fa3f5c739000000000000000000000000000000000000000000000000000000007bffffffffffffffffffffffffffffffffffffffffffffffffffffffff19166020820180517bffffffffffffffffffffffffffffffffffffffffffffffffffffffff8381831617835250505050613023565b505050565b6001816000016000828254019250508190555050565b60007f01ffc9a7000000000000000000000000000000000000000000000000000000007bffffffffffffffffffffffffffffffffffffffffffffffffffffffff1916827bffffffffffffffffffffffffffffffffffffffffffffffffffffffff1916149050919050565b60008073ffffffffffffffffffffffffffffffffffffffff166002600084815260200190815260200160002060009054906101000a900473ffffffffffffffffffffffffffffffffffffffff1673ffffffffffffffffffffffffffffffffffffffff1614159050919050565b600033905090565b816004600083815260200190815260200160002060006101000a81548173ffffffffffffffffffffffffffffffffffffffff021916908373ffffffffffffffffffffffffffffffffffffffff160217905550808273ffffffffffffffffffffffffffffffffffffffff1661255b83610cc3565b73ffffffffffffffffffffffffffffffffffffffff167f8c5be1e5ebec7d5bd14f71427d1e84f3dd0314c0f7b2291e5b200ac8c7c3b92560405160405180910390a45050565b60006125ac82612474565b6125eb576040517f08c379a00000000000000000000000000000000000000000000000000000000081526004016125e2906144d0565b60405180910390fd5b60006125f683610cc3565b90508073ffffffffffffffffffffffffffffffffffffffff168473ffffffffffffffffffffffffffffffffffffffff16148061266557508373ffffffffffffffffffffffffffffffffffffffff1661264d8461082f565b73ffffffffffffffffffffffffffffffffffffffff16145b8061267657506126758185611c37565b5b91505092915050565b8273ffffffffffffffffffffffffffffffffffffffff1661269f82610cc3565b73ffffffffffffffffffffffffffffffffffffffff16146126f5576040517f08c379a00000000000000000000000000000000000000000000000000000000081526004016126ec90614430565b60405180910390fd5b600073ffffffffffffffffffffffffffffffffffffffff168273ffffffffffffffffffffffffffffffffffffffff161415612765576040517f08c379a000000000000000000000000000000000000000000000000000000000815260040161275c90614490565b60405180910390fd5b61277083838361304c565b61277b6000826124e8565b6001600360008573ffffffffffffffffffffffffffffffffffffffff1673ffffffffffffffffffffffffffffffffffffffff16815260200190815260200160002060008282546127cb91906148df565b925050819055506001600360008473ffffffffffffffffffffffffffffffffffffffff1673ffffffffffffffffffffffffffffffffffffffff168152602001908152602001600020600082825461282291906147fe565b92505081905550816002600083815260200190815260200160002060006101000a81548173ffffffffffffffffffffffffffffffffffffffff021916908373ffffffffffffffffffffffffffffffffffffffff160217905550808273ffffffffffffffffffffffffffffffffffffffff168473ffffffffffffffffffffffffffffffffffffffff167fddf252ad1be2c89b69c2b068fc378daa952ba7f163c4a11628f55a4df523b3ef60405160405180910390a46128e1838383613051565b505050565b600081600001549050919050565b8173ffffffffffffffffffffffffffffffffffffffff168373ffffffffffffffffffffffffffffffffffffffff161415612963576040517f08c379a000000000000000000000000000000000000000000000000000000000815260040161295a906144b0565b60405180910390fd5b80600560008573ffffffffffffffffffffffffffffffffffffffff1673ffffffffffffffffffffffffffffffffffffffff16815260200190815260200160002060008473ffffffffffffffffffffffffffffffffffffffff1673ffffffffffffffffffffffffffffffffffffffff16815260200190815260200160002060006101000a81548160ff0219169083151502179055508173ffffffffffffffffffffffffffffffffffffffff168373ffffffffffffffffffffffffffffffffffffffff167f17307eab39ab6107e8899845ad3d59bd9653f200f220920489ca2b5937696c3183604051612a5491906141fd565b60405180910390a3505050565b612a6c84848461267f565b612a7884848484613056565b612ab7576040517f08c379a0000000000000000000000000000000000000000000000000000000008152600401612aae90614410565b60405180910390fd5b50505050565b60606000821415612b05576040518060400160405280600181526020017f30000000000000000000000000000000000000000000000000000000000000008152509050612c65565b600082905060005b60008214612b37578080612b2090614a3e565b915050600a82612b309190614854565b9150612b0d565b60008167ffffffffffffffff811115612b79577f4e487b7100000000000000000000000000000000000000000000000000000000600052604160045260246000fd5b6040519080825280601f01601f191660200182016040528015612bab5781602001600182028036833780820191505090505b5090505b60008514612c5e57600182612bc491906148df565b9150600a85612bd39190614a87565b6030612bdf91906147fe565b60f81b818381518110612c1b577f4e487b7100000000000000000000000000000000000000000000000000000000600052603260045260246000fd5b60200101907effffffffffffffffffffffffffffffffffffffffffffffffffffffffffffff1916908160001a905350600a85612c579190614854565b9450612baf565b8093505050505b919050565b60606000825190506000811415612c935760405180602001604052806000815250915050612e23565b60006003600283612ca491906147fe565b612cae9190614854565b6004612cba9190614885565b90506000602082612ccb91906147fe565b67ffffffffffffffff811115612d0a577f4e487b7100000000000000000000000000000000000000000000000000000000600052604160045260246000fd5b6040519080825280601f01601f191660200182016040528015612d3c5781602001600182028036833780820191505090505b5090506000604051806060016040528060408152602001615345604091399050600181016020830160005b86811015612de05760038101905062ffffff818a015116603f8160121c168401518060081b905060ff603f83600c1c1686015116810190508060081b905060ff603f8360061c1686015116810190508060081b905060ff603f831686015116810190508060e01b90508084526004840193505050612d67565b506003860660018114612dfa5760028114612e0a57612e15565b613d3d60f01b6002830352612e15565b603d60f81b60018303525b508484525050819450505050505b919050565b612ec484848484604051602401612e42949392919061430a565b6040516020818303038152906040527fd5cf17d0000000000000000000000000000000000000000000000000000000007bffffffffffffffffffffffffffffffffffffffffffffffffffffffff19166020820180517bffffffffffffffffffffffffffffffffffffffffffffffffffffffff8381831617835250505050613023565b50505050565b612f628282604051602401612ee092919061435d565b6040516020818303038152906040527f9710a9d0000000000000000000000000000000000000000000000000000000007bffffffffffffffffffffffffffffffffffffffffffffffffffffffff19166020820180517bffffffffffffffffffffffffffffffffffffffffffffffffffffffff8381831617835250505050613023565b5050565b612f808282604051806020016040528060008152506131ed565b5050565b61301e838383604051602401612f9c939291906143d2565b6040516020818303038152906040527f969cdd03000000000000000000000000000000000000000000000000000000007bffffffffffffffffffffffffffffffffffffffffffffffffffffffff19166020820180517bffffffffffffffffffffffffffffffffffffffffffffffffffffffff8381831617835250505050613023565b505050565b60008151905060006a636f6e736f6c652e6c6f679050602083016000808483855afa5050505050565b505050565b505050565b60006130778473ffffffffffffffffffffffffffffffffffffffff16613248565b156131e0578373ffffffffffffffffffffffffffffffffffffffff1663150b7a026130a06124e0565b8786866040518563ffffffff1660e01b81526004016130c29493929190614136565b602060405180830381600087803b1580156130dc57600080fd5b505af192505050801561310d57506040513d601f19601f8201168201806040525081019061310a9190613804565b60015b613190573d806000811461313d576040519150601f19603f3d011682016040523d82523d6000602084013e613142565b606091505b50600081511415613188576040517f08c379a000000000000000000000000000000000000000000000000000000000815260040161317f90614410565b60405180910390fd5b805181602001fd5b63150b7a0260e01b7bffffffffffffffffffffffffffffffffffffffffffffffffffffffff1916817bffffffffffffffffffffffffffffffffffffffffffffffffffffffff1916149150506131e5565b600190505b949350505050565b6131f7838361326b565b6132046000848484613056565b613243576040517f08c379a000000000000000000000000000000000000000000000000000000000815260040161323a90614410565b60405180910390fd5b505050565b6000808273ffffffffffffffffffffffffffffffffffffffff163b119050919050565b600073ffffffffffffffffffffffffffffffffffffffff168273ffffffffffffffffffffffffffffffffffffffff1614156132db576040517f08c379a00000000000000000000000000000000000000000000000000000000081526004016132d290614570565b60405180910390fd5b6132e481612474565b15613324576040517f08c379a000000000000000000000000000000000000000000000000000000000815260040161331b90614470565b60405180910390fd5b6133306000838361304c565b6001600360008473ffffffffffffffffffffffffffffffffffffffff1673ffffffffffffffffffffffffffffffffffffffff168152602001908152602001600020600082825461338091906147fe565b92505081905550816002600083815260200190815260200160002060006101000a81548173ffffffffffffffffffffffffffffffffffffffff021916908373ffffffffffffffffffffffffffffffffffffffff160217905550808273ffffffffffffffffffffffffffffffffffffffff16600073ffffffffffffffffffffffffffffffffffffffff167fddf252ad1be2c89b69c2b068fc378daa952ba7f163c4a11628f55a4df523b3ef60405160405180910390a461344160008383613051565b5050565b6040518060c001604052806060815260200160608152602001606081526020016000815260200160008152602001600081525090565b60405180610100016040528060008152602001606081526020016060815260200160008152602001600081526020016000815260200160608152602001600081525090565b8280546134cc906149db565b90600052602060002090601f0160209004810192826134ee5760008555613535565b82601f1061350757805160ff1916838001178555613535565b82800160010185558215613535579182015b82811115613534578251825591602001919060010190613519565b5b5090506135429190613546565b5090565b5b8082111561355f576000816000905550600101613547565b5090565b600061357661357184614707565b6146e2565b90508281526020810184848401111561358e57600080fd5b613599848285614999565b509392505050565b6000813590506135b081615258565b92915050565b6000813590506135c58161526f565b92915050565b6000813590506135da81615286565b92915050565b6000815190506135ef81615286565b92915050565b600082601f83011261360657600080fd5b8135613616848260208601613563565b91505092915050565b60008135905061362e8161529d565b92915050565b60006020828403121561364657600080fd5b6000613654848285016135a1565b91505092915050565b6000806040838503121561367057600080fd5b600061367e858286016135a1565b925050602061368f858286016135a1565b9150509250929050565b6000806000606084860312156136ae57600080fd5b60006136bc868287016135a1565b93505060206136cd868287016135a1565b92505060406136de8682870161361f565b9150509250925092565b600080600080608085870312156136fe57600080fd5b600061370c878288016135a1565b945050602061371d878288016135a1565b935050604061372e8782880161361f565b925050606085013567ffffffffffffffff81111561374b57600080fd5b613757878288016135f5565b91505092959194509250565b6000806040838503121561377657600080fd5b6000613784858286016135a1565b9250506020613795858286016135b6565b9150509250929050565b600080604083850312156137b257600080fd5b60006137c0858286016135a1565b92505060206137d18582860161361f565b9150509250929050565b6000602082840312156137ed57600080fd5b60006137fb848285016135cb565b91505092915050565b60006020828403121561381657600080fd5b6000613824848285016135e0565b91505092915050565b60006020828403121561383f57600080fd5b600061384d8482850161361f565b91505092915050565b60006138628383613882565b60208301905092915050565b600061387a8383613e6f565b905092915050565b61388b81614925565b82525050565b61389a81614925565b82525050565b6138a981614913565b82525050565b60006138ba82614758565b6138c4818561479e565b93506138cf83614738565b8060005b838110156139005781516138e78882613856565b97506138f283614784565b9250506001810190506138d3565b5085935050505092915050565b600061391882614763565b61392281856147af565b93508360208202850161393485614748565b8060005b858110156139705784840389528151613951858261386e565b945061395c83614791565b925060208a01995050600181019050613938565b50829750879550505050505092915050565b61398b81614937565b82525050565b600061399c8261476e565b6139a681856147c0565b93506139b68185602086016149a8565b6139bf81614b74565b840191505092915050565b60006139d582614779565b6139df81856147d1565b93506139ef8185602086016149a8565b6139f881614b74565b840191505092915050565b6000613a0e82614779565b613a1881856147e2565b9350613a288185602086016149a8565b613a3181614b74565b840191505092915050565b6000613a4782614779565b613a5181856147f3565b9350613a618185602086016149a8565b80840191505092915050565b6000613a7a6005836147f3565b9150613a8582614b85565b600582019050919050565b6000613a9d6032836147e2565b9150613aa882614bae565b604082019050919050565b6000613ac06025836147e2565b9150613acb82614bfd565b604082019050919050565b6000613ae36028836147e2565b9150613aee82614c4c565b604082019050919050565b6000613b06601c836147e2565b9150613b1182614c9b565b602082019050919050565b6000613b29600e836147f3565b9150613b3482614cc4565b600e82019050919050565b6000613b4c6024836147e2565b9150613b5782614ced565b604082019050919050565b6000613b6f6019836147e2565b9150613b7a82614d3c565b602082019050919050565b6000613b92602c836147e2565b9150613b9d82614d65565b604082019050919050565b6000613bb56024836147f3565b9150613bc082614db4565b602482019050919050565b6000613bd86038836147e2565b9150613be382614e03565b604082019050919050565b6000613bfb602a836147e2565b9150613c0682614e52565b604082019050919050565b6000613c1e6029836147e2565b9150613c2982614ea1565b604082019050919050565b6000613c41602d836147e2565b9150613c4c82614ef0565b604082019050919050565b6000613c646020836147e2565b9150613c6f82614f3f565b602082019050919050565b6000613c876024836147f3565b9150613c9282614f68565b602482019050919050565b6000613caa602c836147e2565b9150613cb582614fb7565b604082019050919050565b6000613ccd600a836147f3565b9150613cd882615006565b600a82019050919050565b6000613cf06021836147e2565b9150613cfb8261502f565b604082019050919050565b6000613d13601d836147f3565b9150613d1e8261507e565b601d82019050919050565b6000613d366069836147f3565b9150613d41826150a7565b606982019050919050565b6000613d596031836147e2565b9150613d6482615142565b604082019050919050565b6000613d7c603d836147f3565b9150613d8782615191565b603d82019050919050565b6000613d9f602d836147f3565b9150613daa826151e0565b602d82019050919050565b6000613dc26003836147f3565b9150613dcd8261522f565b600382019050919050565b600060c0830160008301518482036000860152613df582826139ca565b91505060208301518482036020860152613e0f82826139ca565b91505060408301518482036040860152613e2982826139ca565b9150506060830151613e3e6060860182613feb565b506080830151613e516080860182613feb565b5060a0830151613e6460a0860182613feb565b508091505092915050565b600061010083016000830151613e886000860182613feb565b5060208301518482036020860152613ea082826139ca565b91505060408301518482036040860152613eba82826139ca565b9150506060830151613ecf6060860182613feb565b506080830151613ee26080860182613feb565b5060a0830151613ef560a0860182613feb565b5060c083015184820360c0860152613f0d82826139ca565b91505060e0830151613f2260e0860182613feb565b508091505092915050565b600061010083016000830151613f466000860182613feb565b5060208301518482036020860152613f5e82826139ca565b91505060408301518482036040860152613f7882826139ca565b9150506060830151613f8d6060860182613feb565b506080830151613fa06080860182613feb565b5060a0830151613fb360a0860182613feb565b5060c083015184820360c0860152613fcb82826139ca565b91505060e0830151613fe060e0860182613feb565b508091505092915050565b613ff48161498f565b82525050565b6140038161498f565b82525050565b600061401482613cc0565b9150614020828b613a3c565b915061402b82613db5565b9150614037828a613a3c565b915061404282613d29565b915061404e8289613a3c565b915061405982613d6f565b91506140658288613a3c565b915061407082613b1c565b915061407c8287613a3c565b915061408782613d92565b91506140938286613a3c565b915061409e82613c7a565b91506140aa8285613a3c565b91506140b582613ba8565b91506140c18284613a3c565b91506140cc82613a6d565b91508190509998505050505050505050565b60006140e982613d06565b91506140f58284613a3c565b915081905092915050565b600060208201905061411560008301846138a0565b92915050565b60006020820190506141306000830184613891565b92915050565b600060808201905061414b60008301876138a0565b61415860208301866138a0565b6141656040830185613ffa565b81810360608301526141778184613991565b905095945050505050565b600060608201905061419760008301866138a0565b6141a46020830185613ffa565b6141b16040830184613ffa565b949350505050565b600060208201905081810360008301526141d381846138af565b905092915050565b600060208201905081810360008301526141f5818461390d565b905092915050565b60006020820190506142126000830184613982565b92915050565b600060208201905081810360008301526142328184613a03565b905092915050565b600060c08201905081810360008301526142548189613a03565b905081810360208301526142688188613a03565b9050818103604083015261427c8187613a03565b905061428b6060830186613ffa565b6142986080830185613ffa565b6142a560a0830184613ffa565b979650505050505050565b600060808201905081810360008301526142ca8187613a03565b905081810360208301526142de8186613a03565b90506142ed6040830185613ffa565b81810360608301526142ff8184613a03565b905095945050505050565b600060808201905081810360008301526143248187613a03565b905081810360208301526143388186613a03565b90506143476040830185613ffa565b6143546060830184613ffa565b95945050505050565b600060408201905081810360008301526143778185613a03565b90506143866020830184613ffa565b9392505050565b600060608201905081810360008301526143a78186613a03565b90506143b66020830185613ffa565b81810360408301526143c88184613a03565b9050949350505050565b600060608201905081810360008301526143ec8186613a03565b90506143fb6020830185613ffa565b6144086040830184613ffa565b949350505050565b6000602082019050818103600083015261442981613a90565b9050919050565b6000602082019050818103600083015261444981613ab3565b9050919050565b6000602082019050818103600083015261446981613ad6565b9050919050565b6000602082019050818103600083015261448981613af9565b9050919050565b600060208201905081810360008301526144a981613b3f565b9050919050565b600060208201905081810360008301526144c981613b62565b9050919050565b600060208201905081810360008301526144e981613b85565b9050919050565b6000602082019050818103600083015261450981613bcb565b9050919050565b6000602082019050818103600083015261452981613bee565b9050919050565b6000602082019050818103600083015261454981613c11565b9050919050565b6000602082019050818103600083015261456981613c34565b9050919050565b6000602082019050818103600083015261458981613c57565b9050919050565b600060208201905081810360008301526145a981613c9d565b9050919050565b600060208201905081810360008301526145c981613ce3565b9050919050565b600060208201905081810360008301526145e981613d4c565b9050919050565b6000602082019050818103600083015261460a8184613dd8565b905092915050565b6000602082019050818103600083015261462c8184613f2d565b905092915050565b60006020820190506146496000830184613ffa565b92915050565b600061010082019050614665600083018b613ffa565b8181036020830152614677818a613a03565b9050818103604083015261468b8189613a03565b905061469a6060830188613ffa565b6146a76080830187613ffa565b6146b460a0830186613ffa565b81810360c08301526146c68185613a03565b90506146d560e0830184613ffa565b9998505050505050505050565b60006146ec6146fd565b90506146f88282614a0d565b919050565b6000604051905090565b600067ffffffffffffffff82111561472257614721614b45565b5b61472b82614b74565b9050602081019050919050565b6000819050602082019050919050565b6000819050602082019050919050565b600081519050919050565b600081519050919050565b600081519050919050565b600081519050919050565b6000602082019050919050565b6000602082019050919050565b600082825260208201905092915050565b600082825260208201905092915050565b600082825260208201905092915050565b600082825260208201905092915050565b600082825260208201905092915050565b600081905092915050565b60006148098261498f565b91506148148361498f565b9250827fffffffffffffffffffffffffffffffffffffffffffffffffffffffffffffffff0382111561484957614848614ab8565b5b828201905092915050565b600061485f8261498f565b915061486a8361498f565b92508261487a57614879614ae7565b5b828204905092915050565b60006148908261498f565b915061489b8361498f565b9250817fffffffffffffffffffffffffffffffffffffffffffffffffffffffffffffffff04831182151516156148d4576148d3614ab8565b5b828202905092915050565b60006148ea8261498f565b91506148f58361498f565b92508282101561490857614907614ab8565b5b828203905092915050565b600061491e8261496f565b9050919050565b60006149308261496f565b9050919050565b60008115159050919050565b60007fffffffff0000000000000000000000000000000000000000000000000000000082169050919050565b600073ffffffffffffffffffffffffffffffffffffffff82169050919050565b6000819050919050565b82818337600083830152505050565b60005b838110156149c65780820151818401526020810190506149ab565b838111156149d5576000848401525b50505050565b600060028204905060018216806149f357607f821691505b60208210811415614a0757614a06614b16565b5b50919050565b614a1682614b74565b810181811067ffffffffffffffff82111715614a3557614a34614b45565b5b80604052505050565b6000614a498261498f565b91507fffffffffffffffffffffffffffffffffffffffffffffffffffffffffffffffff821415614a7c57614a7b614ab8565b5b600182019050919050565b6000614a928261498f565b9150614a9d8361498f565b925082614aad57614aac614ae7565b5b828206905092915050565b7f4e487b7100000000000000000000000000000000000000000000000000000000600052601160045260246000fd5b7f4e487b7100000000000000000000000000000000000000000000000000000000600052601260045260246000fd5b7f4e487b7100000000000000000000000000000000000000000000000000000000600052602260045260246000fd5b7f4e487b7100000000000000000000000000000000000000000000000000000000600052604160045260246000fd5b6000601f19601f8301169050919050565b7f227d205d7d000000000000000000000000000000000000000000000000000000600082015250565b7f4552433732313a207472616e7366657220746f206e6f6e20455243373231526560008201527f63656976657220696d706c656d656e7465720000000000000000000000000000602082015250565b7f4552433732313a207472616e736665722066726f6d20696e636f72726563742060008201527f6f776e6572000000000000000000000000000000000000000000000000000000602082015250565b7f4572726f723a20626f7373206d757374206861766520485020746f206174746160008201527f636b20626f73732e000000000000000000000000000000000000000000000000602082015250565b7f4552433732313a20746f6b656e20616c7265616479206d696e74656400000000600082015250565b7f2c20226d61785f76616c7565223a000000000000000000000000000000000000600082015250565b7f4552433732313a207472616e7366657220746f20746865207a65726f2061646460008201527f7265737300000000000000000000000000000000000000000000000000000000602082015250565b7f4552433732313a20617070726f766520746f2063616c6c657200000000000000600082015250565b7f4552433732313a206f70657261746f7220717565727920666f72206e6f6e657860008201527f697374656e7420746f6b656e0000000000000000000000000000000000000000602082015250565b7f7d2c207b202274726169745f74797065223a202254797065222c202276616c7560008201527f65223a2200000000000000000000000000000000000000000000000000000000602082015250565b7f4552433732313a20617070726f76652063616c6c6572206973206e6f74206f7760008201527f6e6572206e6f7220617070726f76656420666f7220616c6c0000000000000000602082015250565b7f4552433732313a2062616c616e636520717565727920666f7220746865207a6560008201527f726f206164647265737300000000000000000000000000000000000000000000602082015250565b7f4552433732313a206f776e657220717565727920666f72206e6f6e657869737460008201527f656e7420746f6b656e0000000000000000000000000000000000000000000000602082015250565b7f4572726f723a20636861726163746572206d757374206861766520485020746f60008201527f2061747461636b20626f73732e00000000000000000000000000000000000000602082015250565b7f4552433732313a206d696e7420746f20746865207a65726f2061646472657373600082015250565b7f7d2c207b202274726169745f74797065223a202243726974222c202276616c7560008201527f65223a2000000000000000000000000000000000000000000000000000000000602082015250565b7f4552433732313a20617070726f76656420717565727920666f72206e6f6e657860008201527f697374656e7420746f6b656e0000000000000000000000000000000000000000602082015250565b7f7b226e616d65223a202200000000000000000000000000000000000000000000600082015250565b7f4552433732313a20617070726f76616c20746f2063757272656e74206f776e6560008201527f7200000000000000000000000000000000000000000000000000000000000000602082015250565b7f646174613a6170706c69636174696f6e2f6a736f6e3b6261736536342c000000600082015250565b7f222c20226465736372697074696f6e223a20225468697320697320616e204e4660008201527f542074686174206c6574732070656f706c6520706c617920696e20746865206760208201527f616d65204d657461766572736520536c6179657221222c2022696d616765223a60408201527f2022697066733a2f2f0000000000000000000000000000000000000000000000606082015250565b7f4552433732313a207472616e736665722063616c6c6572206973206e6f74206f60008201527f776e6572206e6f7220617070726f766564000000000000000000000000000000602082015250565b7f222c202261747472696275746573223a205b207b202274726169745f7479706560008201527f223a20224865616c746820506f696e7473222c202276616c7565223a20000000602082015250565b7f7d2c207b202274726169745f74797065223a202241747461636b2044616d616760008201527f65222c202276616c7565223a2000000000000000000000000000000000000000602082015250565b7f2023200000000000000000000000000000000000000000000000000000000000600082015250565b61526181614913565b811461526c57600080fd5b50565b61527881614937565b811461528357600080fd5b50565b61528f81614943565b811461529a57600080fd5b50565b6152a68161498f565b81146152b157600080fd5b5056fe506c617965722077697468206368617261637465722025732069732061626f757420746f2061747461636b2e2048617320257320485020616e64202573204144426f73732061747461636b656420706c617965722e204e657720706c61796572206870206973202573506c617965722061747461636b656420626f73732e204e657720626f73732068702069732025734142434445464748494a4b4c4d4e4f505152535455565758595a6162636465666768696a6b6c6d6e6f707172737475767778797a303132333435363738392b2f4d696e746564204e4654207769746820746f6b656e496420257320616e6420636861726163746572496e64657820257320a2646970667358221220eca1bd53ebe2118836a0ab4d345bee65b6cc990a9bd693fb6e52c12a1d54f49164736f6c63430008010033446f6e6520696e697469616c697a696e6720257320772f2048502025732c20696d67202573446f6e6520696e697469616c697a696e6720626f737320257320772f2068702025732c20696d67202573",
  "linkReferences": {},
  "deployedLinkReferences": {}
}