{
  "_format": "hh-sol-artifact-1",
  "contractName": "MyEpicGame",
  "sourceName": "contracts/MyEpicGame.sol",
  "abi": [
    {
      "inputs": [
        {
          "internalType": "string[]",
          "name": "characterNames",
          "type": "string[]"
        },
        {
          "internalType": "string[]",
          "name": "characterImageURIs",
          "type": "string[]"
        },
        {
          "internalType": "uint256[]",
          "name": "characterHp",
          "type": "uint256[]"
        },
        {
          "internalType": "uint256[]",
          "name": "characterAttackDmg",
          "type": "uint256[]"
        },
        {
          "internalType": "string[]",
          "name": "characterTypes",
          "type": "string[]"
        },
        {
          "internalType": "uint256[]",
          "name": "characterCrit",
          "type": "uint256[]"
        },
        {
          "internalType": "string",
          "name": "bossName",
          "type": "string"
        },
        {
          "internalType": "string",
          "name": "bossImageURI",
          "type": "string"
        },
        {
          "internalType": "uint256",
          "name": "bossHp",
          "type": "uint256"
        },
        {
          "internalType": "uint256",
          "name": "bossAttackDamage",
          "type": "uint256"
        }
      ],
      "stateMutability": "nonpayable",
      "type": "constructor"
    },
    {
      "anonymous": false,
      "inputs": [
        {
          "indexed": true,
          "internalType": "address",
          "name": "owner",
          "type": "address"
        },
        {
          "indexed": true,
          "internalType": "address",
          "name": "approved",
          "type": "address"
        },
        {
          "indexed": true,
          "internalType": "uint256",
          "name": "tokenId",
          "type": "uint256"
        }
      ],
      "name": "Approval",
      "type": "event"
    },
    {
      "anonymous": false,
      "inputs": [
        {
          "indexed": true,
          "internalType": "address",
          "name": "owner",
          "type": "address"
        },
        {
          "indexed": true,
          "internalType": "address",
          "name": "operator",
          "type": "address"
        },
        {
          "indexed": false,
          "internalType": "bool",
          "name": "approved",
          "type": "bool"
        }
      ],
      "name": "ApprovalForAll",
      "type": "event"
    },
    {
      "anonymous": false,
      "inputs": [
        {
          "indexed": false,
          "internalType": "address",
          "name": "sender",
          "type": "address"
        },
        {
          "indexed": false,
          "internalType": "uint256",
          "name": "newBossHp",
          "type": "uint256"
        },
        {
          "indexed": false,
          "internalType": "uint256",
          "name": "newPlayerHp",
          "type": "uint256"
        }
      ],
      "name": "AttackComplete",
      "type": "event"
    },
    {
      "anonymous": false,
      "inputs": [
        {
          "indexed": false,
          "internalType": "address",
          "name": "sender",
          "type": "address"
        },
        {
          "indexed": false,
          "internalType": "uint256",
          "name": "tokenId",
          "type": "uint256"
        },
        {
          "indexed": false,
          "internalType": "uint256",
          "name": "characterIndex",
          "type": "uint256"
        }
      ],
      "name": "CharacterNFTMinted",
      "type": "event"
    },
    {
      "anonymous": false,
      "inputs": [
        {
          "indexed": true,
          "internalType": "address",
          "name": "from",
          "type": "address"
        },
        {
          "indexed": true,
          "internalType": "address",
          "name": "to",
          "type": "address"
        },
        {
          "indexed": true,
          "internalType": "uint256",
          "name": "tokenId",
          "type": "uint256"
        }
      ],
      "name": "Transfer",
      "type": "event"
    },
    {
      "inputs": [
        {
          "internalType": "address",
          "name": "to",
          "type": "address"
        },
        {
          "internalType": "uint256",
          "name": "tokenId",
          "type": "uint256"
        }
      ],
      "name": "approve",
      "outputs": [],
      "stateMutability": "nonpayable",
      "type": "function"
    },
    {
      "inputs": [],
      "name": "attackBoss",
      "outputs": [],
      "stateMutability": "nonpayable",
      "type": "function"
    },
    {
      "inputs": [
        {
          "internalType": "address",
          "name": "owner",
          "type": "address"
        }
      ],
      "name": "balanceOf",
      "outputs": [
        {
          "internalType": "uint256",
          "name": "",
          "type": "uint256"
        }
      ],
      "stateMutability": "view",
      "type": "function"
    },
    {
      "inputs": [],
      "name": "bigBoss",
      "outputs": [
        {
          "internalType": "string",
          "name": "name",
          "type": "string"
        },
        {
          "internalType": "string",
          "name": "imageURI",
          "type": "string"
        },
        {
          "internalType": "uint256",
          "name": "hp",
          "type": "uint256"
        },
        {
          "internalType": "uint256",
          "name": "maxHp",
          "type": "uint256"
        },
        {
          "internalType": "uint256",
          "name": "attackDamage",
          "type": "uint256"
        }
      ],
      "stateMutability": "view",
      "type": "function"
    },
    {
      "inputs": [
        {
          "internalType": "address",
          "name": "player",
          "type": "address"
        }
      ],
      "name": "checkIfUserHasNFT",
      "outputs": [
        {
          "components": [
            {
              "internalType": "uint256",
              "name": "characterIndex",
              "type": "uint256"
            },
            {
              "internalType": "string",
              "name": "name",
              "type": "string"
            },
            {
              "internalType": "string",
              "name": "imageURI",
              "type": "string"
            },
            {
              "internalType": "uint256",
              "name": "hp",
              "type": "uint256"
            },
            {
              "internalType": "uint256",
              "name": "maxHp",
              "type": "uint256"
            },
            {
              "internalType": "uint256",
              "name": "attackDamage",
              "type": "uint256"
            },
            {
              "internalType": "string",
              "name": "characterType",
              "type": "string"
            },
            {
              "internalType": "uint256",
              "name": "crit",
              "type": "uint256"
            }
          ],
          "internalType": "struct MyEpicGame.CharacterAttributes",
          "name": "",
          "type": "tuple"
        }
      ],
      "stateMutability": "view",
      "type": "function"
    },
    {
      "inputs": [],
      "name": "getAddresses",
      "outputs": [
        {
          "internalType": "address payable[]",
          "name": "",
          "type": "address[]"
        }
      ],
      "stateMutability": "view",
      "type": "function"
    },
    {
      "inputs": [],
      "name": "getAllDefaultCharacters",
      "outputs": [
        {
          "components": [
            {
              "internalType": "uint256",
              "name": "characterIndex",
              "type": "uint256"
            },
            {
              "internalType": "string",
              "name": "name",
              "type": "string"
            },
            {
              "internalType": "string",
              "name": "imageURI",
              "type": "string"
            },
            {
              "internalType": "uint256",
              "name": "hp",
              "type": "uint256"
            },
            {
              "internalType": "uint256",
              "name": "maxHp",
              "type": "uint256"
            },
            {
              "internalType": "uint256",
              "name": "attackDamage",
              "type": "uint256"
            },
            {
              "internalType": "string",
              "name": "characterType",
              "type": "string"
            },
            {
              "internalType": "uint256",
              "name": "crit",
              "type": "uint256"
            }
          ],
          "internalType": "struct MyEpicGame.CharacterAttributes[]",
          "name": "",
          "type": "tuple[]"
        }
      ],
      "stateMutability": "view",
      "type": "function"
    },
    {
      "inputs": [
        {
          "internalType": "uint256",
          "name": "tokenId",
          "type": "uint256"
        }
      ],
      "name": "getApproved",
      "outputs": [
        {
          "internalType": "address",
          "name": "",
          "type": "address"
        }
      ],
      "stateMutability": "view",
      "type": "function"
    },
    {
      "inputs": [],
      "name": "getBigBoss",
      "outputs": [
        {
          "components": [
            {
              "internalType": "string",
              "name": "name",
              "type": "string"
            },
            {
              "internalType": "string",
              "name": "imageURI",
              "type": "string"
            },
            {
              "internalType": "uint256",
              "name": "hp",
              "type": "uint256"
            },
            {
              "internalType": "uint256",
              "name": "maxHp",
              "type": "uint256"
            },
            {
              "internalType": "uint256",
              "name": "attackDamage",
              "type": "uint256"
            }
          ],
          "internalType": "struct MyEpicGame.BigBoss",
          "name": "",
          "type": "tuple"
        }
      ],
      "stateMutability": "view",
      "type": "function"
    },
    {
      "inputs": [],
      "name": "getSupply",
      "outputs": [
        {
          "internalType": "uint256",
          "name": "",
          "type": "uint256"
        }
      ],
      "stateMutability": "view",
      "type": "function"
    },
    {
      "inputs": [
        {
          "internalType": "address",
          "name": "owner",
          "type": "address"
        },
        {
          "internalType": "address",
          "name": "operator",
          "type": "address"
        }
      ],
      "name": "isApprovedForAll",
      "outputs": [
        {
          "internalType": "bool",
          "name": "",
          "type": "bool"
        }
      ],
      "stateMutability": "view",
      "type": "function"
    },
    {
      "inputs": [
        {
          "internalType": "uint256",
          "name": "_characterIndex",
          "type": "uint256"
        }
      ],
      "name": "mintCharacterNFT",
      "outputs": [],
      "stateMutability": "nonpayable",
      "type": "function"
    },
    {
      "inputs": [],
      "name": "name",
      "outputs": [
        {
          "internalType": "string",
          "name": "",
          "type": "string"
        }
      ],
      "stateMutability": "view",
      "type": "function"
    },
    {
      "inputs": [
        {
          "internalType": "uint256",
          "name": "",
          "type": "uint256"
        }
      ],
      "name": "nftHolderAttributes",
      "outputs": [
        {
          "internalType": "uint256",
          "name": "characterIndex",
          "type": "uint256"
        },
        {
          "internalType": "string",
          "name": "name",
          "type": "string"
        },
        {
          "internalType": "string",
          "name": "imageURI",
          "type": "string"
        },
        {
          "internalType": "uint256",
          "name": "hp",
          "type": "uint256"
        },
        {
          "internalType": "uint256",
          "name": "maxHp",
          "type": "uint256"
        },
        {
          "internalType": "uint256",
          "name": "attackDamage",
          "type": "uint256"
        },
        {
          "internalType": "string",
          "name": "characterType",
          "type": "string"
        },
        {
          "internalType": "uint256",
          "name": "crit",
          "type": "uint256"
        }
      ],
      "stateMutability": "view",
      "type": "function"
    },
    {
      "inputs": [
        {
          "internalType": "address",
          "name": "",
          "type": "address"
        }
      ],
      "name": "nftHolders",
      "outputs": [
        {
          "internalType": "uint256",
          "name": "",
          "type": "uint256"
        }
      ],
      "stateMutability": "view",
      "type": "function"
    },
    {
      "inputs": [
        {
          "internalType": "uint256",
          "name": "tokenId",
          "type": "uint256"
        }
      ],
      "name": "ownerOf",
      "outputs": [
        {
          "internalType": "address",
          "name": "",
          "type": "address"
        }
      ],
      "stateMutability": "view",
      "type": "function"
    },
    {
      "inputs": [
        {
          "internalType": "uint256",
          "name": "",
          "type": "uint256"
        }
      ],
      "name": "players",
      "outputs": [
        {
          "internalType": "address payable",
          "name": "",
          "type": "address"
        }
      ],
      "stateMutability": "view",
      "type": "function"
    },
    {
      "inputs": [
        {
          "internalType": "address",
          "name": "from",
          "type": "address"
        },
        {
          "internalType": "address",
          "name": "to",
          "type": "address"
        },
        {
          "internalType": "uint256",
          "name": "tokenId",
          "type": "uint256"
        }
      ],
      "name": "safeTransferFrom",
      "outputs": [],
      "stateMutability": "nonpayable",
      "type": "function"
    },
    {
      "inputs": [
        {
          "internalType": "address",
          "name": "from",
          "type": "address"
        },
        {
          "internalType": "address",
          "name": "to",
          "type": "address"
        },
        {
          "internalType": "uint256",
          "name": "tokenId",
          "type": "uint256"
        },
        {
          "internalType": "bytes",
          "name": "_data",
          "type": "bytes"
        }
      ],
      "name": "safeTransferFrom",
      "outputs": [],
      "stateMutability": "nonpayable",
      "type": "function"
    },
    {
      "inputs": [
        {
          "internalType": "address",
          "name": "operator",
          "type": "address"
        },
        {
          "internalType": "bool",
          "name": "approved",
          "type": "bool"
        }
      ],
      "name": "setApprovalForAll",
      "outputs": [],
      "stateMutability": "nonpayable",
      "type": "function"
    },
    {
      "inputs": [
        {
          "internalType": "bytes4",
          "name": "interfaceId",
          "type": "bytes4"
        }
      ],
      "name": "supportsInterface",
      "outputs": [
        {
          "internalType": "bool",
          "name": "",
          "type": "bool"
        }
      ],
      "stateMutability": "view",
      "type": "function"
    },
    {
      "inputs": [],
      "name": "symbol",
      "outputs": [
        {
          "internalType": "string",
          "name": "",
          "type": "string"
        }
      ],
      "stateMutability": "view",
      "type": "function"
    },
    {
      "inputs": [
        {
          "internalType": "uint256",
          "name": "_tokenId",
          "type": "uint256"
        }
      ],
      "name": "tokenURI",
      "outputs": [
        {
          "internalType": "string",
          "name": "",
          "type": "string"
        }
      ],
      "stateMutability": "view",
      "type": "function"
    },
    {
      "inputs": [
        {
          "internalType": "address",
          "name": "from",
          "type": "address"
        },
        {
          "internalType": "address",
          "name": "to",
          "type": "address"
        },
        {
          "internalType": "uint256",
          "name": "tokenId",
          "type": "uint256"
        }
      ],
      "name": "transferFrom",
      "outputs": [],
      "stateMutability": "nonpayable",
      "type": "function"
    }
  ],
  "bytecode": "0x60806040523480156200001157600080fd5b50604051620064fb380380620064fb833981810160405281019062000037919062000cb7565b6040518060400160405280600781526020017f506f6b656d6f6e000000000000000000000000000000000000000000000000008152506040518060400160405280600481526020017f504f4b45000000000000000000000000000000000000000000000000000000008152508160009080519060200190620000bb92919062000a4a565b508060019080519060200190620000d492919062000a4a565b5050506040518060a0016040528085815260200184815260200183815260200183815260200182815250600a60008201518160000190805190602001906200011e92919062000a4a565b5060208201518160010190805190602001906200013d92919062000a4a565b50604082015181600201556060820151816003015560808201518160040155905050620002c06040518060600160405280602a8152602001620064d1602a9139600a60000180546200018f90620010e4565b80601f0160208091040260200160405190810160405280929190818152602001828054620001bd90620010e4565b80156200020e5780601f10620001e2576101008083540402835291602001916200020e565b820191906000526020600020905b815481529060010190602001808311620001f057829003601f168201915b5050505050600a60020154600a60010180546200022b90620010e4565b80601f01602080910402602001604051908101604052809291908181526020018280546200025990620010e4565b8015620002aa5780601f106200027e57610100808354040283529160200191620002aa565b820191906000526020600020905b8154815290600101906020018083116200028c57829003601f168201915b5050505050620008b660201b620021921760201c565b60005b8a518110156200088e5760076040518061010001604052808381526020018d84815181106200031b577f4e487b7100000000000000000000000000000000000000000000000000000000600052603260045260246000fd5b602002602001015181526020018c848151811062000362577f4e487b7100000000000000000000000000000000000000000000000000000000600052603260045260246000fd5b602002602001015181526020018b8481518110620003a9577f4e487b7100000000000000000000000000000000000000000000000000000000600052603260045260246000fd5b602002602001015181526020018b8481518110620003f0577f4e487b7100000000000000000000000000000000000000000000000000000000600052603260045260246000fd5b602002602001015181526020018a848151811062000437577f4e487b7100000000000000000000000000000000000000000000000000000000600052603260045260246000fd5b602002602001015181526020018984815181106200047e577f4e487b7100000000000000000000000000000000000000000000000000000000600052603260045260246000fd5b60200260200101518152602001888481518110620004c5577f4e487b7100000000000000000000000000000000000000000000000000000000600052603260045260246000fd5b602002602001015181525090806001815401808255809150506001900390600052602060002090600802016000909190919091506000820151816000015560208201518160010190805190602001906200052192919062000a4a565b5060408201518160020190805190602001906200054092919062000a4a565b50606082015181600301556080820151816004015560a0820151816005015560c08201518160060190805190602001906200057d92919062000a4a565b5060e082015181600701555050600060078281548110620005c7577f4e487b7100000000000000000000000000000000000000000000000000000000600052603260045260246000fd5b90600052602060002090600802016040518061010001604052908160008201548152602001600182018054620005fd90620010e4565b80601f01602080910402602001604051908101604052809291908181526020018280546200062b90620010e4565b80156200067c5780601f1062000650576101008083540402835291602001916200067c565b820191906000526020600020905b8154815290600101906020018083116200065e57829003601f168201915b505050505081526020016002820180546200069790620010e4565b80601f0160208091040260200160405190810160405280929190818152602001828054620006c590620010e4565b8015620007165780601f10620006ea5761010080835404028352916020019162000716565b820191906000526020600020905b815481529060010190602001808311620006f857829003601f168201915b505050505081526020016003820154815260200160048201548152602001600582015481526020016006820180546200074f90620010e4565b80601f01602080910402602001604051908101604052809291908181526020018280546200077d90620010e4565b8015620007ce5780601f10620007a257610100808354040283529160200191620007ce565b820191906000526020600020905b815481529060010190602001808311620007b057829003601f168201915b50505050508152602001600782015481525050905062000821604051806060016040528060258152602001620064ac60259139826020015183606001518460400151620008b660201b620021921760201c565b620008766040518060400160405280600f81526020017f257320646d672c207479706520257300000000000000000000000000000000008152508260a001518360c001516200096260201b620022341760201c565b5060018162000886919062001047565b9050620002c3565b50620008a6600662000a0b60201b620022d31760201c565b5050505050505050505062001208565b6200095c84848484604051602401620008d3949392919062000ec1565b6040516020818303038152906040527f8d142cdd000000000000000000000000000000000000000000000000000000007bffffffffffffffffffffffffffffffffffffffffffffffffffffffff19166020820180517bffffffffffffffffffffffffffffffffffffffffffffffffffffffff838183161783525050505062000a2160201b60201c565b50505050565b62000a068383836040516024016200097d9392919062000f23565b6040516020818303038152906040527fa3f5c739000000000000000000000000000000000000000000000000000000007bffffffffffffffffffffffffffffffffffffffffffffffffffffffff19166020820180517bffffffffffffffffffffffffffffffffffffffffffffffffffffffff838183161783525050505062000a2160201b60201c565b505050565b6001816000016000828254019250508190555050565b60008151905060006a636f6e736f6c652e6c6f679050602083016000808483855afa5050505050565b82805462000a5890620010e4565b90600052602060002090601f01602090048101928262000a7c576000855562000ac8565b82601f1062000a9757805160ff191683800117855562000ac8565b8280016001018555821562000ac8579182015b8281111562000ac757825182559160200191906001019062000aaa565b5b50905062000ad7919062000adb565b5090565b5b8082111562000af657600081600090555060010162000adc565b5090565b600062000b1162000b0b8462000f97565b62000f6e565b9050808382526020820190508260005b8581101562000b55578151850162000b3a888262000c73565b84526020840193506020830192505060018101905062000b21565b5050509392505050565b600062000b7662000b708462000fc6565b62000f6e565b9050808382526020820190508285602086028201111562000b9657600080fd5b60005b8581101562000bca578162000baf888262000ca0565b84526020840193506020830192505060018101905062000b99565b5050509392505050565b600062000beb62000be58462000ff5565b62000f6e565b90508281526020810184848401111562000c0457600080fd5b62000c11848285620010ae565b509392505050565b600082601f83011262000c2b57600080fd5b815162000c3d84826020860162000afa565b91505092915050565b600082601f83011262000c5857600080fd5b815162000c6a84826020860162000b5f565b91505092915050565b600082601f83011262000c8557600080fd5b815162000c9784826020860162000bd4565b91505092915050565b60008151905062000cb181620011ee565b92915050565b6000806000806000806000806000806101408b8d03121562000cd857600080fd5b60008b015167ffffffffffffffff81111562000cf357600080fd5b62000d018d828e0162000c19565b9a505060208b015167ffffffffffffffff81111562000d1f57600080fd5b62000d2d8d828e0162000c19565b99505060408b015167ffffffffffffffff81111562000d4b57600080fd5b62000d598d828e0162000c46565b98505060608b015167ffffffffffffffff81111562000d7757600080fd5b62000d858d828e0162000c46565b97505060808b015167ffffffffffffffff81111562000da357600080fd5b62000db18d828e0162000c19565b96505060a08b015167ffffffffffffffff81111562000dcf57600080fd5b62000ddd8d828e0162000c46565b95505060c08b015167ffffffffffffffff81111562000dfb57600080fd5b62000e098d828e0162000c73565b94505060e08b015167ffffffffffffffff81111562000e2757600080fd5b62000e358d828e0162000c73565b93505061010062000e498d828e0162000ca0565b92505061012062000e5d8d828e0162000ca0565b9150509295989b9194979a5092959850565b600062000e7c826200102b565b62000e88818562001036565b935062000e9a818560208601620010ae565b62000ea581620011dd565b840191505092915050565b62000ebb81620010a4565b82525050565b6000608082019050818103600083015262000edd818762000e6f565b9050818103602083015262000ef3818662000e6f565b905062000f04604083018562000eb0565b818103606083015262000f18818462000e6f565b905095945050505050565b6000606082019050818103600083015262000f3f818662000e6f565b905062000f50602083018562000eb0565b818103604083015262000f64818462000e6f565b9050949350505050565b600062000f7a62000f8d565b905062000f8882826200111a565b919050565b6000604051905090565b600067ffffffffffffffff82111562000fb55762000fb4620011ae565b5b602082029050602081019050919050565b600067ffffffffffffffff82111562000fe45762000fe3620011ae565b5b602082029050602081019050919050565b600067ffffffffffffffff821115620010135762001012620011ae565b5b6200101e82620011dd565b9050602081019050919050565b600081519050919050565b600082825260208201905092915050565b60006200105482620010a4565b91506200106183620010a4565b9250827fffffffffffffffffffffffffffffffffffffffffffffffffffffffffffffffff0382111562001099576200109862001150565b5b828201905092915050565b6000819050919050565b60005b83811015620010ce578082015181840152602081019050620010b1565b83811115620010de576000848401525b50505050565b60006002820490506001821680620010fd57607f821691505b602082108114156200111457620011136200117f565b5b50919050565b6200112582620011dd565b810181811067ffffffffffffffff82111715620011475762001146620011ae565b5b80604052505050565b7f4e487b7100000000000000000000000000000000000000000000000000000000600052601160045260246000fd5b7f4e487b7100000000000000000000000000000000000000000000000000000000600052602260045260246000fd5b7f4e487b7100000000000000000000000000000000000000000000000000000000600052604160045260246000fd5b6000601f19601f8301169050919050565b620011f981620010a4565b81146200120557600080fd5b50565b61529480620012186000396000f3fe608060405234801561001057600080fd5b50600436106101585760003560e01c806395d89b41116100c3578063b953084e1161007c578063b953084e146103f8578063c87b56dd14610416578063d4f24c5b14610446578063e985e9c514610450578063f71d96cb14610480578063f8b81ef7146104b057610158565b806395d89b411461032b57806398da4c9514610349578063a22cb46514610380578063a39fac121461039c578063a9c32679146103ba578063b88d4fde146103dc57610158565b806323b872dd1161011557806323b872dd1461024557806342842e0e146102615780636352211e1461027d5780636c9c2faf146102ad57806370a08231146102cb5780637df124a1146102fb57610158565b806301ffc9a71461015d5780630665f9611461018d57806306fdde03146101ab578063081812fc146101c9578063095ea7b3146101f95780631bf7bfd414610215575b600080fd5b610177600480360381019061017291906136b3565b6104cc565b60405161018491906140bb565b60405180910390f35b6101956105ae565b6040516101a29190614499565b60405180910390f35b6101b361070a565b6040516101c091906140d6565b60405180910390f35b6101e360048036038101906101de9190613705565b61079c565b6040516101f09190613fbe565b60405180910390f35b610213600480360381019061020e9190613677565b610821565b005b61022f600480360381019061022a919061350c565b610939565b60405161023c91906144bb565b60405180910390f35b61025f600480360381019061025a9190613571565b610bb0565b005b61027b60048036038101906102769190613571565b610c10565b005b61029760048036038101906102929190613705565b610c30565b6040516102a49190613fbe565b60405180910390f35b6102b5610ce2565b6040516102c291906144dd565b60405180910390f35b6102e560048036038101906102e0919061350c565b610cf3565b6040516102f291906144dd565b60405180910390f35b6103156004803603810190610310919061350c565b610dab565b60405161032291906144dd565b60405180910390f35b610333610dc3565b60405161034091906140d6565b60405180910390f35b610363600480360381019061035e9190613705565b610e55565b6040516103779897969594939291906144f8565b60405180910390f35b61039a6004803603810190610395919061363b565b611035565b005b6103a461104b565b6040516103b19190614077565b60405180910390f35b6103c26110d9565b6040516103d39594939291906141a5565b60405180910390f35b6103f660048036038101906103f191906135c0565b61120d565b005b61040061126f565b60405161040d9190614099565b60405180910390f35b610430600480360381019061042b9190613705565b6114b7565b60405161043d91906140d6565b60405180910390f35b61044e611789565b005b61046a60048036038101906104659190613535565b611b16565b60405161047791906140bb565b60405180910390f35b61049a60048036038101906104959190613705565b611baa565b6040516104a79190613fd9565b60405180910390f35b6104ca60048036038101906104c59190613705565b611be9565b005b60007f80ac58cd000000000000000000000000000000000000000000000000000000007bffffffffffffffffffffffffffffffffffffffffffffffffffffffff1916827bffffffffffffffffffffffffffffffffffffffffffffffffffffffff1916148061059757507f5b5e139f000000000000000000000000000000000000000000000000000000007bffffffffffffffffffffffffffffffffffffffffffffffffffffffff1916827bffffffffffffffffffffffffffffffffffffffffffffffffffffffff1916145b806105a757506105a6826122e9565b5b9050919050565b6105b6613324565b600a6040518060a00160405290816000820180546105d390614884565b80601f01602080910402602001604051908101604052809291908181526020018280546105ff90614884565b801561064c5780601f106106215761010080835404028352916020019161064c565b820191906000526020600020905b81548152906001019060200180831161062f57829003601f168201915b5050505050815260200160018201805461066590614884565b80601f016020809104026020016040519081016040528092919081815260200182805461069190614884565b80156106de5780601f106106b3576101008083540402835291602001916106de565b820191906000526020600020905b8154815290600101906020018083116106c157829003601f168201915b505050505081526020016002820154815260200160038201548152602001600482015481525050905090565b60606000805461071990614884565b80601f016020809104026020016040519081016040528092919081815260200182805461074590614884565b80156107925780601f1061076757610100808354040283529160200191610792565b820191906000526020600020905b81548152906001019060200180831161077557829003601f168201915b5050505050905090565b60006107a782612353565b6107e6576040517f08c379a00000000000000000000000000000000000000000000000000000000081526004016107dd90614439565b60405180910390fd5b6004600083815260200190815260200160002060009054906101000a900473ffffffffffffffffffffffffffffffffffffffff169050919050565b600061082c82610c30565b90508073ffffffffffffffffffffffffffffffffffffffff168373ffffffffffffffffffffffffffffffffffffffff16141561089d576040517f08c379a000000000000000000000000000000000000000000000000000000000815260040161089490614459565b60405180910390fd5b8073ffffffffffffffffffffffffffffffffffffffff166108bc6123bf565b73ffffffffffffffffffffffffffffffffffffffff1614806108eb57506108ea816108e56123bf565b611b16565b5b61092a576040517f08c379a000000000000000000000000000000000000000000000000000000000815260040161092190614399565b60405180910390fd5b61093483836123c7565b505050565b610941613353565b6000600960008473ffffffffffffffffffffffffffffffffffffffff1673ffffffffffffffffffffffffffffffffffffffff1681526020019081526020016000205490506000811115610b9d576008600082815260200190815260200160002060405180610100016040529081600082015481526020016001820180546109c790614884565b80601f01602080910402602001604051908101604052809291908181526020018280546109f390614884565b8015610a405780601f10610a1557610100808354040283529160200191610a40565b820191906000526020600020905b815481529060010190602001808311610a2357829003601f168201915b50505050508152602001600282018054610a5990614884565b80601f0160208091040260200160405190810160405280929190818152602001828054610a8590614884565b8015610ad25780601f10610aa757610100808354040283529160200191610ad2565b820191906000526020600020905b815481529060010190602001808311610ab557829003601f168201915b50505050508152602001600382015481526020016004820154815260200160058201548152602001600682018054610b0990614884565b80601f0160208091040260200160405190810160405280929190818152602001828054610b3590614884565b8015610b825780601f10610b5757610100808354040283529160200191610b82565b820191906000526020600020905b815481529060010190602001808311610b6557829003601f168201915b50505050508152602001600782015481525050915050610bab565b610ba5613353565b80925050505b919050565b610bc1610bbb6123bf565b82612480565b610c00576040517f08c379a0000000000000000000000000000000000000000000000000000000008152600401610bf790614479565b60405180910390fd5b610c0b83838361255e565b505050565b610c2b8383836040518060200160405280600081525061120d565b505050565b6000806002600084815260200190815260200160002060009054906101000a900473ffffffffffffffffffffffffffffffffffffffff169050600073ffffffffffffffffffffffffffffffffffffffff168173ffffffffffffffffffffffffffffffffffffffff161415610cd9576040517f08c379a0000000000000000000000000000000000000000000000000000000008152600401610cd0906143d9565b60405180910390fd5b80915050919050565b6000610cee60066127c5565b905090565b60008073ffffffffffffffffffffffffffffffffffffffff168273ffffffffffffffffffffffffffffffffffffffff161415610d64576040517f08c379a0000000000000000000000000000000000000000000000000000000008152600401610d5b906143b9565b60405180910390fd5b600360008373ffffffffffffffffffffffffffffffffffffffff1673ffffffffffffffffffffffffffffffffffffffff168152602001908152602001600020549050919050565b60096020528060005260406000206000915090505481565b606060018054610dd290614884565b80601f0160208091040260200160405190810160405280929190818152602001828054610dfe90614884565b8015610e4b5780601f10610e2057610100808354040283529160200191610e4b565b820191906000526020600020905b815481529060010190602001808311610e2e57829003601f168201915b5050505050905090565b6008602052806000526040600020600091509050806000015490806001018054610e7e90614884565b80601f0160208091040260200160405190810160405280929190818152602001828054610eaa90614884565b8015610ef75780601f10610ecc57610100808354040283529160200191610ef7565b820191906000526020600020905b815481529060010190602001808311610eda57829003601f168201915b505050505090806002018054610f0c90614884565b80601f0160208091040260200160405190810160405280929190818152602001828054610f3890614884565b8015610f855780601f10610f5a57610100808354040283529160200191610f85565b820191906000526020600020905b815481529060010190602001808311610f6857829003601f168201915b505050505090806003015490806004015490806005015490806006018054610fac90614884565b80601f0160208091040260200160405190810160405280929190818152602001828054610fd890614884565b80156110255780601f10610ffa57610100808354040283529160200191611025565b820191906000526020600020905b81548152906001019060200180831161100857829003601f168201915b5050505050908060070154905088565b6110476110406123bf565b83836127d3565b5050565b6060600f8054806020026020016040519081016040528092919081815260200182805480156110cf57602002820191906000526020600020905b8160009054906101000a900473ffffffffffffffffffffffffffffffffffffffff1673ffffffffffffffffffffffffffffffffffffffff1681526020019060010190808311611085575b5050505050905090565b600a8060000180546110ea90614884565b80601f016020809104026020016040519081016040528092919081815260200182805461111690614884565b80156111635780601f1061113857610100808354040283529160200191611163565b820191906000526020600020905b81548152906001019060200180831161114657829003601f168201915b50505050509080600101805461117890614884565b80601f01602080910402602001604051908101604052809291908181526020018280546111a490614884565b80156111f15780601f106111c6576101008083540402835291602001916111f1565b820191906000526020600020905b8154815290600101906020018083116111d457829003601f168201915b5050505050908060020154908060030154908060040154905085565b61121e6112186123bf565b83612480565b61125d576040517f08c379a000000000000000000000000000000000000000000000000000000000815260040161125490614479565b60405180910390fd5b61126984848484612940565b50505050565b60606007805480602002602001604051908101604052809291908181526020016000905b828210156114ae578382906000526020600020906008020160405180610100016040529081600082015481526020016001820180546112d190614884565b80601f01602080910402602001604051908101604052809291908181526020018280546112fd90614884565b801561134a5780601f1061131f5761010080835404028352916020019161134a565b820191906000526020600020905b81548152906001019060200180831161132d57829003601f168201915b5050505050815260200160028201805461136390614884565b80601f016020809104026020016040519081016040528092919081815260200182805461138f90614884565b80156113dc5780601f106113b1576101008083540402835291602001916113dc565b820191906000526020600020905b8154815290600101906020018083116113bf57829003601f168201915b5050505050815260200160038201548152602001600482015481526020016005820154815260200160068201805461141390614884565b80601f016020809104026020016040519081016040528092919081815260200182805461143f90614884565b801561148c5780601f106114615761010080835404028352916020019161148c565b820191906000526020600020905b81548152906001019060200180831161146f57829003601f168201915b5050505050815260200160078201548152505081526020019060010190611293565b50505050905090565b606060006008600084815260200190815260200160002060405180610100016040529081600082015481526020016001820180546114f490614884565b80601f016020809104026020016040519081016040528092919081815260200182805461152090614884565b801561156d5780601f106115425761010080835404028352916020019161156d565b820191906000526020600020905b81548152906001019060200180831161155057829003601f168201915b5050505050815260200160028201805461158690614884565b80601f01602080910402602001604051908101604052809291908181526020018280546115b290614884565b80156115ff5780601f106115d4576101008083540402835291602001916115ff565b820191906000526020600020905b8154815290600101906020018083116115e257829003601f168201915b5050505050815260200160038201548152602001600482015481526020016005820154815260200160068201805461163690614884565b80601f016020809104026020016040519081016040528092919081815260200182805461166290614884565b80156116af5780601f10611684576101008083540402835291602001916116af565b820191906000526020600020905b81548152906001019060200180831161169257829003601f168201915b50505050508152602001600782015481525050905060006116d3826060015161299c565b905060006116e4836080015161299c565b905060006116f58460a0015161299c565b905060006117068560e0015161299c565b90506000611754866020015161171b8a61299c565b8860400151888888888d60c00151604051602001611740989796959493929190613ec7565b604051602081830303815290604052612b49565b90506000816040516020016117699190613f9c565b604051602081830303815290604052905080975050505050505050919050565b6000600960003373ffffffffffffffffffffffffffffffffffffffff1673ffffffffffffffffffffffffffffffffffffffff168152602001908152602001600020549050600060086000838152602001908152602001600020905061189c60405180606001604052806040815260200161515e6040913982600101805461180f90614884565b80601f016020809104026020016040519081016040528092919081815260200182805461183b90614884565b80156118885780601f1061185d57610100808354040283529160200191611888565b820191906000526020600020905b81548152906001019060200180831161186b57829003601f168201915b505050505083600301548460050154612d07565b6119746040518060400160405280601b81526020017f426f73732025732068617320257320485020616e642025732041440000000000815250600a60000180546118e590614884565b80601f016020809104026020016040519081016040528092919081815260200182805461191190614884565b801561195e5780601f106119335761010080835404028352916020019161195e565b820191906000526020600020905b81548152906001019060200180831161194157829003601f168201915b5050505050600a60020154600a60040154612d07565b60008160030154116119bb576040517f08c379a00000000000000000000000000000000000000000000000000000000081526004016119b2906143f9565b60405180910390fd5b6000600a6002015411611a03576040517f08c379a00000000000000000000000000000000000000000000000000000000081526004016119fa906142f9565b60405180910390fd5b8060050154600a600201541015611a24576000600a60020181905550611a43565b8060050154600a60020154611a399190614788565b600a600201819055505b600a6004015481600301541015611a635760008160030181905550611a81565b600a600401548160030154611a789190614788565b81600301819055505b611aa86040518060600160405280602781526020016151c760279139600a60020154612da9565b611ace60405180606001604052806029815260200161519e602991398260030154612da9565b7f32bd565ee3f2cb5ddd742bbecd6048d3e9abe90b3827a40c2b72d232e71e3c9d33600a600201548360030154604051611b0a93929190614040565b60405180910390a15050565b6000600560008473ffffffffffffffffffffffffffffffffffffffff1673ffffffffffffffffffffffffffffffffffffffff16815260200190815260200160002060008373ffffffffffffffffffffffffffffffffffffffff1673ffffffffffffffffffffffffffffffffffffffff16815260200190815260200160002060009054906101000a900460ff16905092915050565b600f8181548110611bba57600080fd5b906000526020600020016000915054906101000a900473ffffffffffffffffffffffffffffffffffffffff1681565b6000611bf560066127c5565b9050611c013382612e45565b60405180610100016040528083815260200160078481548110611c4d577f4e487b7100000000000000000000000000000000000000000000000000000000600052603260045260246000fd5b90600052602060002090600802016001018054611c6990614884565b80601f0160208091040260200160405190810160405280929190818152602001828054611c9590614884565b8015611ce25780601f10611cb757610100808354040283529160200191611ce2565b820191906000526020600020905b815481529060010190602001808311611cc557829003601f168201915b5050505050815260200160078481548110611d26577f4e487b7100000000000000000000000000000000000000000000000000000000600052603260045260246000fd5b90600052602060002090600802016002018054611d4290614884565b80601f0160208091040260200160405190810160405280929190818152602001828054611d6e90614884565b8015611dbb5780601f10611d9057610100808354040283529160200191611dbb565b820191906000526020600020905b815481529060010190602001808311611d9e57829003601f168201915b5050505050815260200160078481548110611dff577f4e487b7100000000000000000000000000000000000000000000000000000000600052603260045260246000fd5b906000526020600020906008020160030154815260200160078481548110611e50577f4e487b7100000000000000000000000000000000000000000000000000000000600052603260045260246000fd5b906000526020600020906008020160040154815260200160078481548110611ea1577f4e487b7100000000000000000000000000000000000000000000000000000000600052603260045260246000fd5b906000526020600020906008020160050154815260200160078481548110611ef2577f4e487b7100000000000000000000000000000000000000000000000000000000600052603260045260246000fd5b90600052602060002090600802016006018054611f0e90614884565b80601f0160208091040260200160405190810160405280929190818152602001828054611f3a90614884565b8015611f875780601f10611f5c57610100808354040283529160200191611f87565b820191906000526020600020905b815481529060010190602001808311611f6a57829003601f168201915b5050505050815260200160078481548110611fcb577f4e487b7100000000000000000000000000000000000000000000000000000000600052603260045260246000fd5b90600052602060002090600802016007015481525060086000838152602001908152602001600020600082015181600001556020820151816001019080519060200190612019929190613398565b506040820151816002019080519060200190612036929190613398565b50606082015181600301556080820151816004015560a0820151816005015560c0820151816006019080519060200190612071929190613398565b5060e082015181600701559050506120a260405180606001604052806031815260200161522e603191398284612e63565b80600960003373ffffffffffffffffffffffffffffffffffffffff1673ffffffffffffffffffffffffffffffffffffffff168152602001908152602001600020819055506120f060066122d3565b600f339080600181540180825580915050600190039060005260206000200160009091909190916101000a81548173ffffffffffffffffffffffffffffffffffffffff021916908373ffffffffffffffffffffffffffffffffffffffff1602179055507f4bc303fd457a97b4691b9af582ce71868a3d258638c8d4f8c60988a0f0bfb8cd33828460405161218693929190614040565b60405180910390a15050565b61222e848484846040516024016121ac94939291906140f8565b6040516020818303038152906040527f8d142cdd000000000000000000000000000000000000000000000000000000007bffffffffffffffffffffffffffffffffffffffffffffffffffffffff19166020820180517bffffffffffffffffffffffffffffffffffffffffffffffffffffffff8381831617835250505050612f02565b50505050565b6122ce83838360405160240161224c93929190614236565b6040516020818303038152906040527fa3f5c739000000000000000000000000000000000000000000000000000000007bffffffffffffffffffffffffffffffffffffffffffffffffffffffff19166020820180517bffffffffffffffffffffffffffffffffffffffffffffffffffffffff8381831617835250505050612f02565b505050565b6001816000016000828254019250508190555050565b60007f01ffc9a7000000000000000000000000000000000000000000000000000000007bffffffffffffffffffffffffffffffffffffffffffffffffffffffff1916827bffffffffffffffffffffffffffffffffffffffffffffffffffffffff1916149050919050565b60008073ffffffffffffffffffffffffffffffffffffffff166002600084815260200190815260200160002060009054906101000a900473ffffffffffffffffffffffffffffffffffffffff1673ffffffffffffffffffffffffffffffffffffffff1614159050919050565b600033905090565b816004600083815260200190815260200160002060006101000a81548173ffffffffffffffffffffffffffffffffffffffff021916908373ffffffffffffffffffffffffffffffffffffffff160217905550808273ffffffffffffffffffffffffffffffffffffffff1661243a83610c30565b73ffffffffffffffffffffffffffffffffffffffff167f8c5be1e5ebec7d5bd14f71427d1e84f3dd0314c0f7b2291e5b200ac8c7c3b92560405160405180910390a45050565b600061248b82612353565b6124ca576040517f08c379a00000000000000000000000000000000000000000000000000000000081526004016124c190614379565b60405180910390fd5b60006124d583610c30565b90508073ffffffffffffffffffffffffffffffffffffffff168473ffffffffffffffffffffffffffffffffffffffff16148061254457508373ffffffffffffffffffffffffffffffffffffffff1661252c8461079c565b73ffffffffffffffffffffffffffffffffffffffff16145b8061255557506125548185611b16565b5b91505092915050565b8273ffffffffffffffffffffffffffffffffffffffff1661257e82610c30565b73ffffffffffffffffffffffffffffffffffffffff16146125d4576040517f08c379a00000000000000000000000000000000000000000000000000000000081526004016125cb906142d9565b60405180910390fd5b600073ffffffffffffffffffffffffffffffffffffffff168273ffffffffffffffffffffffffffffffffffffffff161415612644576040517f08c379a000000000000000000000000000000000000000000000000000000000815260040161263b90614339565b60405180910390fd5b61264f838383612f2b565b61265a6000826123c7565b6001600360008573ffffffffffffffffffffffffffffffffffffffff1673ffffffffffffffffffffffffffffffffffffffff16815260200190815260200160002060008282546126aa9190614788565b925050819055506001600360008473ffffffffffffffffffffffffffffffffffffffff1673ffffffffffffffffffffffffffffffffffffffff168152602001908152602001600020600082825461270191906146a7565b92505081905550816002600083815260200190815260200160002060006101000a81548173ffffffffffffffffffffffffffffffffffffffff021916908373ffffffffffffffffffffffffffffffffffffffff160217905550808273ffffffffffffffffffffffffffffffffffffffff168473ffffffffffffffffffffffffffffffffffffffff167fddf252ad1be2c89b69c2b068fc378daa952ba7f163c4a11628f55a4df523b3ef60405160405180910390a46127c0838383612f30565b505050565b600081600001549050919050565b8173ffffffffffffffffffffffffffffffffffffffff168373ffffffffffffffffffffffffffffffffffffffff161415612842576040517f08c379a000000000000000000000000000000000000000000000000000000000815260040161283990614359565b60405180910390fd5b80600560008573ffffffffffffffffffffffffffffffffffffffff1673ffffffffffffffffffffffffffffffffffffffff16815260200190815260200160002060008473ffffffffffffffffffffffffffffffffffffffff1673ffffffffffffffffffffffffffffffffffffffff16815260200190815260200160002060006101000a81548160ff0219169083151502179055508173ffffffffffffffffffffffffffffffffffffffff168373ffffffffffffffffffffffffffffffffffffffff167f17307eab39ab6107e8899845ad3d59bd9653f200f220920489ca2b5937696c318360405161293391906140bb565b60405180910390a3505050565b61294b84848461255e565b61295784848484612f35565b612996576040517f08c379a000000000000000000000000000000000000000000000000000000000815260040161298d906142b9565b60405180910390fd5b50505050565b606060008214156129e4576040518060400160405280600181526020017f30000000000000000000000000000000000000000000000000000000000000008152509050612b44565b600082905060005b60008214612a165780806129ff906148e7565b915050600a82612a0f91906146fd565b91506129ec565b60008167ffffffffffffffff811115612a58577f4e487b7100000000000000000000000000000000000000000000000000000000600052604160045260246000fd5b6040519080825280601f01601f191660200182016040528015612a8a5781602001600182028036833780820191505090505b5090505b60008514612b3d57600182612aa39190614788565b9150600a85612ab29190614930565b6030612abe91906146a7565b60f81b818381518110612afa577f4e487b7100000000000000000000000000000000000000000000000000000000600052603260045260246000fd5b60200101907effffffffffffffffffffffffffffffffffffffffffffffffffffffffffffff1916908160001a905350600a85612b3691906146fd565b9450612a8e565b8093505050505b919050565b60606000825190506000811415612b725760405180602001604052806000815250915050612d02565b60006003600283612b8391906146a7565b612b8d91906146fd565b6004612b99919061472e565b90506000602082612baa91906146a7565b67ffffffffffffffff811115612be9577f4e487b7100000000000000000000000000000000000000000000000000000000600052604160045260246000fd5b6040519080825280601f01601f191660200182016040528015612c1b5781602001600182028036833780820191505090505b50905060006040518060600160405280604081526020016151ee604091399050600181016020830160005b86811015612cbf5760038101905062ffffff818a015116603f8160121c168401518060081b905060ff603f83600c1c1686015116810190508060081b905060ff603f8360061c1686015116810190508060081b905060ff603f831686015116810190508060e01b90508084526004840193505050612c46565b506003860660018114612cd95760028114612ce957612cf4565b613d3d60f01b6002830352612cf4565b603d60f81b60018303525b508484525050819450505050505b919050565b612da384848484604051602401612d219493929190614152565b6040516020818303038152906040527fd5cf17d0000000000000000000000000000000000000000000000000000000007bffffffffffffffffffffffffffffffffffffffffffffffffffffffff19166020820180517bffffffffffffffffffffffffffffffffffffffffffffffffffffffff8381831617835250505050612f02565b50505050565b612e418282604051602401612dbf929190614206565b6040516020818303038152906040527f9710a9d0000000000000000000000000000000000000000000000000000000007bffffffffffffffffffffffffffffffffffffffffffffffffffffffff19166020820180517bffffffffffffffffffffffffffffffffffffffffffffffffffffffff8381831617835250505050612f02565b5050565b612e5f8282604051806020016040528060008152506130cc565b5050565b612efd838383604051602401612e7b9392919061427b565b6040516020818303038152906040527f969cdd03000000000000000000000000000000000000000000000000000000007bffffffffffffffffffffffffffffffffffffffffffffffffffffffff19166020820180517bffffffffffffffffffffffffffffffffffffffffffffffffffffffff8381831617835250505050612f02565b505050565b60008151905060006a636f6e736f6c652e6c6f679050602083016000808483855afa5050505050565b505050565b505050565b6000612f568473ffffffffffffffffffffffffffffffffffffffff16613127565b156130bf578373ffffffffffffffffffffffffffffffffffffffff1663150b7a02612f7f6123bf565b8786866040518563ffffffff1660e01b8152600401612fa19493929190613ff4565b602060405180830381600087803b158015612fbb57600080fd5b505af1925050508015612fec57506040513d601f19601f82011682018060405250810190612fe991906136dc565b60015b61306f573d806000811461301c576040519150601f19603f3d011682016040523d82523d6000602084013e613021565b606091505b50600081511415613067576040517f08c379a000000000000000000000000000000000000000000000000000000000815260040161305e906142b9565b60405180910390fd5b805181602001fd5b63150b7a0260e01b7bffffffffffffffffffffffffffffffffffffffffffffffffffffffff1916817bffffffffffffffffffffffffffffffffffffffffffffffffffffffff1916149150506130c4565b600190505b949350505050565b6130d6838361314a565b6130e36000848484612f35565b613122576040517f08c379a0000000000000000000000000000000000000000000000000000000008152600401613119906142b9565b60405180910390fd5b505050565b6000808273ffffffffffffffffffffffffffffffffffffffff163b119050919050565b600073ffffffffffffffffffffffffffffffffffffffff168273ffffffffffffffffffffffffffffffffffffffff1614156131ba576040517f08c379a00000000000000000000000000000000000000000000000000000000081526004016131b190614419565b60405180910390fd5b6131c381612353565b15613203576040517f08c379a00000000000000000000000000000000000000000000000000000000081526004016131fa90614319565b60405180910390fd5b61320f60008383612f2b565b6001600360008473ffffffffffffffffffffffffffffffffffffffff1673ffffffffffffffffffffffffffffffffffffffff168152602001908152602001600020600082825461325f91906146a7565b92505081905550816002600083815260200190815260200160002060006101000a81548173ffffffffffffffffffffffffffffffffffffffff021916908373ffffffffffffffffffffffffffffffffffffffff160217905550808273ffffffffffffffffffffffffffffffffffffffff16600073ffffffffffffffffffffffffffffffffffffffff167fddf252ad1be2c89b69c2b068fc378daa952ba7f163c4a11628f55a4df523b3ef60405160405180910390a461332060008383612f30565b5050565b6040518060a0016040528060608152602001606081526020016000815260200160008152602001600081525090565b60405180610100016040528060008152602001606081526020016060815260200160008152602001600081526020016000815260200160608152602001600081525090565b8280546133a490614884565b90600052602060002090601f0160209004810192826133c6576000855561340d565b82601f106133df57805160ff191683800117855561340d565b8280016001018555821561340d579182015b8281111561340c5782518255916020019190600101906133f1565b5b50905061341a919061341e565b5090565b5b8082111561343757600081600090555060010161341f565b5090565b600061344e613449846145b0565b61458b565b90508281526020810184848401111561346657600080fd5b613471848285614842565b509392505050565b60008135905061348881615101565b92915050565b60008135905061349d81615118565b92915050565b6000813590506134b28161512f565b92915050565b6000815190506134c78161512f565b92915050565b600082601f8301126134de57600080fd5b81356134ee84826020860161343b565b91505092915050565b60008135905061350681615146565b92915050565b60006020828403121561351e57600080fd5b600061352c84828501613479565b91505092915050565b6000806040838503121561354857600080fd5b600061355685828601613479565b925050602061356785828601613479565b9150509250929050565b60008060006060848603121561358657600080fd5b600061359486828701613479565b93505060206135a586828701613479565b92505060406135b6868287016134f7565b9150509250925092565b600080600080608085870312156135d657600080fd5b60006135e487828801613479565b94505060206135f587828801613479565b9350506040613606878288016134f7565b925050606085013567ffffffffffffffff81111561362357600080fd5b61362f878288016134cd565b91505092959194509250565b6000806040838503121561364e57600080fd5b600061365c85828601613479565b925050602061366d8582860161348e565b9150509250929050565b6000806040838503121561368a57600080fd5b600061369885828601613479565b92505060206136a9858286016134f7565b9150509250929050565b6000602082840312156136c557600080fd5b60006136d3848285016134a3565b91505092915050565b6000602082840312156136ee57600080fd5b60006136fc848285016134b8565b91505092915050565b60006020828403121561371757600080fd5b6000613725848285016134f7565b91505092915050565b600061373a838361375a565b60208301905092915050565b60006137528383613d2d565b905092915050565b613763816147ce565b82525050565b613772816147ce565b82525050565b613781816147bc565b82525050565b600061379282614601565b61379c8185614647565b93506137a7836145e1565b8060005b838110156137d85781516137bf888261372e565b97506137ca8361462d565b9250506001810190506137ab565b5085935050505092915050565b60006137f08261460c565b6137fa8185614658565b93508360208202850161380c856145f1565b8060005b8581101561384857848403895281516138298582613746565b94506138348361463a565b925060208a01995050600181019050613810565b50829750879550505050505092915050565b613863816147e0565b82525050565b600061387482614617565b61387e8185614669565b935061388e818560208601614851565b61389781614a1d565b840191505092915050565b60006138ad82614622565b6138b7818561467a565b93506138c7818560208601614851565b6138d081614a1d565b840191505092915050565b60006138e682614622565b6138f0818561468b565b9350613900818560208601614851565b61390981614a1d565b840191505092915050565b600061391f82614622565b613929818561469c565b9350613939818560208601614851565b80840191505092915050565b600061395260058361469c565b915061395d82614a2e565b600582019050919050565b600061397560328361468b565b915061398082614a57565b604082019050919050565b600061399860258361468b565b91506139a382614aa6565b604082019050919050565b60006139bb60288361468b565b91506139c682614af5565b604082019050919050565b60006139de601c8361468b565b91506139e982614b44565b602082019050919050565b6000613a01600e8361469c565b9150613a0c82614b6d565b600e82019050919050565b6000613a2460248361468b565b9150613a2f82614b96565b604082019050919050565b6000613a4760198361468b565b9150613a5282614be5565b602082019050919050565b6000613a6a602c8361468b565b9150613a7582614c0e565b604082019050919050565b6000613a8d60248361469c565b9150613a9882614c5d565b602482019050919050565b6000613ab060388361468b565b9150613abb82614cac565b604082019050919050565b6000613ad3602a8361468b565b9150613ade82614cfb565b604082019050919050565b6000613af660298361468b565b9150613b0182614d4a565b604082019050919050565b6000613b19602d8361468b565b9150613b2482614d99565b604082019050919050565b6000613b3c60208361468b565b9150613b4782614de8565b602082019050919050565b6000613b5f60248361469c565b9150613b6a82614e11565b602482019050919050565b6000613b82602c8361468b565b9150613b8d82614e60565b604082019050919050565b6000613ba5600a8361469c565b9150613bb082614eaf565b600a82019050919050565b6000613bc860218361468b565b9150613bd382614ed8565b604082019050919050565b6000613beb601d8361469c565b9150613bf682614f27565b601d82019050919050565b6000613c0e60698361469c565b9150613c1982614f50565b606982019050919050565b6000613c3160318361468b565b9150613c3c82614feb565b604082019050919050565b6000613c54603d8361469c565b9150613c5f8261503a565b603d82019050919050565b6000613c77602d8361469c565b9150613c8282615089565b602d82019050919050565b6000613c9a60038361469c565b9150613ca5826150d8565b600382019050919050565b600060a0830160008301518482036000860152613ccd82826138a2565b91505060208301518482036020860152613ce782826138a2565b9150506040830151613cfc6040860182613ea9565b506060830151613d0f6060860182613ea9565b506080830151613d226080860182613ea9565b508091505092915050565b600061010083016000830151613d466000860182613ea9565b5060208301518482036020860152613d5e82826138a2565b91505060408301518482036040860152613d7882826138a2565b9150506060830151613d8d6060860182613ea9565b506080830151613da06080860182613ea9565b5060a0830151613db360a0860182613ea9565b5060c083015184820360c0860152613dcb82826138a2565b91505060e0830151613de060e0860182613ea9565b508091505092915050565b600061010083016000830151613e046000860182613ea9565b5060208301518482036020860152613e1c82826138a2565b91505060408301518482036040860152613e3682826138a2565b9150506060830151613e4b6060860182613ea9565b506080830151613e5e6080860182613ea9565b5060a0830151613e7160a0860182613ea9565b5060c083015184820360c0860152613e8982826138a2565b91505060e0830151613e9e60e0860182613ea9565b508091505092915050565b613eb281614838565b82525050565b613ec181614838565b82525050565b6000613ed282613b98565b9150613ede828b613914565b9150613ee982613c8d565b9150613ef5828a613914565b9150613f0082613c01565b9150613f0c8289613914565b9150613f1782613c47565b9150613f238288613914565b9150613f2e826139f4565b9150613f3a8287613914565b9150613f4582613c6a565b9150613f518286613914565b9150613f5c82613b52565b9150613f688285613914565b9150613f7382613a80565b9150613f7f8284613914565b9150613f8a82613945565b91508190509998505050505050505050565b6000613fa782613bde565b9150613fb38284613914565b915081905092915050565b6000602082019050613fd36000830184613778565b92915050565b6000602082019050613fee6000830184613769565b92915050565b60006080820190506140096000830187613778565b6140166020830186613778565b6140236040830185613eb8565b81810360608301526140358184613869565b905095945050505050565b60006060820190506140556000830186613778565b6140626020830185613eb8565b61406f6040830184613eb8565b949350505050565b600060208201905081810360008301526140918184613787565b905092915050565b600060208201905081810360008301526140b381846137e5565b905092915050565b60006020820190506140d0600083018461385a565b92915050565b600060208201905081810360008301526140f081846138db565b905092915050565b6000608082019050818103600083015261411281876138db565b9050818103602083015261412681866138db565b90506141356040830185613eb8565b818103606083015261414781846138db565b905095945050505050565b6000608082019050818103600083015261416c81876138db565b9050818103602083015261418081866138db565b905061418f6040830185613eb8565b61419c6060830184613eb8565b95945050505050565b600060a08201905081810360008301526141bf81886138db565b905081810360208301526141d381876138db565b90506141e26040830186613eb8565b6141ef6060830185613eb8565b6141fc6080830184613eb8565b9695505050505050565b6000604082019050818103600083015261422081856138db565b905061422f6020830184613eb8565b9392505050565b6000606082019050818103600083015261425081866138db565b905061425f6020830185613eb8565b818103604083015261427181846138db565b9050949350505050565b6000606082019050818103600083015261429581866138db565b90506142a46020830185613eb8565b6142b16040830184613eb8565b949350505050565b600060208201905081810360008301526142d281613968565b9050919050565b600060208201905081810360008301526142f28161398b565b9050919050565b60006020820190508181036000830152614312816139ae565b9050919050565b60006020820190508181036000830152614332816139d1565b9050919050565b6000602082019050818103600083015261435281613a17565b9050919050565b6000602082019050818103600083015261437281613a3a565b9050919050565b6000602082019050818103600083015261439281613a5d565b9050919050565b600060208201905081810360008301526143b281613aa3565b9050919050565b600060208201905081810360008301526143d281613ac6565b9050919050565b600060208201905081810360008301526143f281613ae9565b9050919050565b6000602082019050818103600083015261441281613b0c565b9050919050565b6000602082019050818103600083015261443281613b2f565b9050919050565b6000602082019050818103600083015261445281613b75565b9050919050565b6000602082019050818103600083015261447281613bbb565b9050919050565b6000602082019050818103600083015261449281613c24565b9050919050565b600060208201905081810360008301526144b38184613cb0565b905092915050565b600060208201905081810360008301526144d58184613deb565b905092915050565b60006020820190506144f26000830184613eb8565b92915050565b60006101008201905061450e600083018b613eb8565b8181036020830152614520818a6138db565b9050818103604083015261453481896138db565b90506145436060830188613eb8565b6145506080830187613eb8565b61455d60a0830186613eb8565b81810360c083015261456f81856138db565b905061457e60e0830184613eb8565b9998505050505050505050565b60006145956145a6565b90506145a182826148b6565b919050565b6000604051905090565b600067ffffffffffffffff8211156145cb576145ca6149ee565b5b6145d482614a1d565b9050602081019050919050565b6000819050602082019050919050565b6000819050602082019050919050565b600081519050919050565b600081519050919050565b600081519050919050565b600081519050919050565b6000602082019050919050565b6000602082019050919050565b600082825260208201905092915050565b600082825260208201905092915050565b600082825260208201905092915050565b600082825260208201905092915050565b600082825260208201905092915050565b600081905092915050565b60006146b282614838565b91506146bd83614838565b9250827fffffffffffffffffffffffffffffffffffffffffffffffffffffffffffffffff038211156146f2576146f1614961565b5b828201905092915050565b600061470882614838565b915061471383614838565b92508261472357614722614990565b5b828204905092915050565b600061473982614838565b915061474483614838565b9250817fffffffffffffffffffffffffffffffffffffffffffffffffffffffffffffffff048311821515161561477d5761477c614961565b5b828202905092915050565b600061479382614838565b915061479e83614838565b9250828210156147b1576147b0614961565b5b828203905092915050565b60006147c782614818565b9050919050565b60006147d982614818565b9050919050565b60008115159050919050565b60007fffffffff0000000000000000000000000000000000000000000000000000000082169050919050565b600073ffffffffffffffffffffffffffffffffffffffff82169050919050565b6000819050919050565b82818337600083830152505050565b60005b8381101561486f578082015181840152602081019050614854565b8381111561487e576000848401525b50505050565b6000600282049050600182168061489c57607f821691505b602082108114156148b0576148af6149bf565b5b50919050565b6148bf82614a1d565b810181811067ffffffffffffffff821117156148de576148dd6149ee565b5b80604052505050565b60006148f282614838565b91507fffffffffffffffffffffffffffffffffffffffffffffffffffffffffffffffff82141561492557614924614961565b5b600182019050919050565b600061493b82614838565b915061494683614838565b92508261495657614955614990565b5b828206905092915050565b7f4e487b7100000000000000000000000000000000000000000000000000000000600052601160045260246000fd5b7f4e487b7100000000000000000000000000000000000000000000000000000000600052601260045260246000fd5b7f4e487b7100000000000000000000000000000000000000000000000000000000600052602260045260246000fd5b7f4e487b7100000000000000000000000000000000000000000000000000000000600052604160045260246000fd5b6000601f19601f8301169050919050565b7f227d205d7d000000000000000000000000000000000000000000000000000000600082015250565b7f4552433732313a207472616e7366657220746f206e6f6e20455243373231526560008201527f63656976657220696d706c656d656e7465720000000000000000000000000000602082015250565b7f4552433732313a207472616e736665722066726f6d20696e636f72726563742060008201527f6f776e6572000000000000000000000000000000000000000000000000000000602082015250565b7f4572726f723a20626f7373206d757374206861766520485020746f206174746160008201527f636b20626f73732e000000000000000000000000000000000000000000000000602082015250565b7f4552433732313a20746f6b656e20616c7265616479206d696e74656400000000600082015250565b7f2c20226d61785f76616c7565223a000000000000000000000000000000000000600082015250565b7f4552433732313a207472616e7366657220746f20746865207a65726f2061646460008201527f7265737300000000000000000000000000000000000000000000000000000000602082015250565b7f4552433732313a20617070726f766520746f2063616c6c657200000000000000600082015250565b7f4552433732313a206f70657261746f7220717565727920666f72206e6f6e657860008201527f697374656e7420746f6b656e0000000000000000000000000000000000000000602082015250565b7f7d2c207b202274726169745f74797065223a202254797065222c202276616c7560008201527f65223a2200000000000000000000000000000000000000000000000000000000602082015250565b7f4552433732313a20617070726f76652063616c6c6572206973206e6f74206f7760008201527f6e6572206e6f7220617070726f76656420666f7220616c6c0000000000000000602082015250565b7f4552433732313a2062616c616e636520717565727920666f7220746865207a6560008201527f726f206164647265737300000000000000000000000000000000000000000000602082015250565b7f4552433732313a206f776e657220717565727920666f72206e6f6e657869737460008201527f656e7420746f6b656e0000000000000000000000000000000000000000000000602082015250565b7f4572726f723a20636861726163746572206d757374206861766520485020746f60008201527f2061747461636b20626f73732e00000000000000000000000000000000000000602082015250565b7f4552433732313a206d696e7420746f20746865207a65726f2061646472657373600082015250565b7f7d2c207b202274726169745f74797065223a202243726974222c202276616c7560008201527f65223a2000000000000000000000000000000000000000000000000000000000602082015250565b7f4552433732313a20617070726f76656420717565727920666f72206e6f6e657860008201527f697374656e7420746f6b656e0000000000000000000000000000000000000000602082015250565b7f7b226e616d65223a202200000000000000000000000000000000000000000000600082015250565b7f4552433732313a20617070726f76616c20746f2063757272656e74206f776e6560008201527f7200000000000000000000000000000000000000000000000000000000000000602082015250565b7f646174613a6170706c69636174696f6e2f6a736f6e3b6261736536342c000000600082015250565b7f222c20226465736372697074696f6e223a20225468697320697320616e204e4660008201527f542074686174206c6574732070656f706c6520706c617920696e20746865206760208201527f616d65204d657461766572736520536c6179657221222c2022696d616765223a60408201527f2022697066733a2f2f0000000000000000000000000000000000000000000000606082015250565b7f4552433732313a207472616e736665722063616c6c6572206973206e6f74206f60008201527f776e6572206e6f7220617070726f766564000000000000000000000000000000602082015250565b7f222c202261747472696275746573223a205b207b202274726169745f7479706560008201527f223a20224865616c746820506f696e7473222c202276616c7565223a20000000602082015250565b7f7d2c207b202274726169745f74797065223a202241747461636b2044616d616760008201527f65222c202276616c7565223a2000000000000000000000000000000000000000602082015250565b7f2023200000000000000000000000000000000000000000000000000000000000600082015250565b61510a816147bc565b811461511557600080fd5b50565b615121816147e0565b811461512c57600080fd5b50565b615138816147ec565b811461514357600080fd5b50565b61514f81614838565b811461515a57600080fd5b5056fe506c617965722077697468206368617261637465722025732069732061626f757420746f2061747461636b2e2048617320257320485020616e64202573204144426f73732061747461636b656420706c617965722e204e657720706c61796572206870206973202573506c617965722061747461636b656420626f73732e204e657720626f73732068702069732025734142434445464748494a4b4c4d4e4f505152535455565758595a6162636465666768696a6b6c6d6e6f707172737475767778797a303132333435363738392b2f4d696e746564204e4654207769746820746f6b656e496420257320616e6420636861726163746572496e64657820257320a2646970667358221220ae1f79ff10356e0cab34e15c1fec4deaa3db4ffa926116e89ff55358f9b64ffc64736f6c63430008010033446f6e6520696e697469616c697a696e6720257320772f2048502025732c20696d67202573446f6e6520696e697469616c697a696e6720626f737320257320772f2068702025732c20696d67202573",
  "linkReferences": {},
  "deployedLinkReferences": {}
}